:020000040800F2
:1000000000000220D90C0008350D0008410D000841
:10001000490D0008510D0008590D000800000000AE
:100020000000000000000000000000005126000851
:10003000610D00080000000029270008652700085E
:10004000310D0008310D0008310D0008310D000898
:10005000310D0008310D00086D0D0008310D00084C
:10006000310D0008310D0008310D0008310D000878
:10007000310D0008310D0008310D0008310D000868
:10008000310D0008310D0008310D0008310D000858
:10009000310D0008310D0008310D0008310D000848
:1000A000310D0008310D0008310D0008310D000838
:1000B000310D0008310D0008310D0008310D000828
:1000C000310D0008310D0008310D0008310D000818
:1000D000310D0008310D0008310D0008310D000808
:1000E000310D0008310D0008310D0008310D0008F8
:1000F000310D0008310D0008310D0008310D0008E8
:10010000310D0008310D0008310D0008310D0008D7
:10011000310D0008310D0008310D0008310D0008C7
:10012000310D0008310D0008310D0008310D0008B7
:10013000310D0008310D0008310D0008310D0008A7
:10014000310D0008310D0008310D0008310D000897
:10015000310D0008310D0008310D0008310D000887
:10016000310D0008310D0008310D0008310D000877
:10017000310D0008310D0008310D0008310D000867
:08018000310D0008310D0008EB
:1001880040F22803C2F200031A780AB90120187055
:10019800704700BF40F22800C2F2000008B50368AB
:1001A8002BB140F20003C0F2000303B1984708BD29
:1001B80070B544F2D03644F2D035C0F60006C0F629
:1001C8000005761BB61006D0002455F8043B013410
:1001D8009847A642F9D144F2D43644F2D035C0F655
:1001E8000006C0F60005761B04F0E2F8B61006D04B
:1001F800002455F8043B01349847A642F9D170BD54
:10020800032A70B404460D4626D941EA000313F0C8
:10021800030F13D020782B78984208BF294606D0C0
:100228001EE014F8010F11F8013F984218D1012A75
:1002380002F1FF32F5D1002070BC70470B4604462E
:1002480051F8045B50F8046BAE4204D1043A0446FA
:10025800032A0B46F2D81D461046002ADAD1EBE7EE
:10026800C01AE9E7032A2DE9F00109D82AB10023C9
:10027800CC5CC45401339342FAD1BDE8F001704715
:100288000B468218014603E02478013301F8014B3C
:1002980011F0030F1C46F7D113F003055DD06E4231
:1002A800C5F1040CED009B594FEACC0C08E004346E
:1002B800A7593B4607FA0CF748EA070741F8047BB9
:1002C800571A23FA05F8032FF1DC03E014F8013B71
:1002D80001F8013B8A42F9D8CFE753F8404C41F87E
:1002E800404C53F83C4C41F83C4C53F8384C41F8DE
:1002F800384C53F8344C41F8344C53F8304C41F8EE
:10030800304C53F82C4C41F82C4C53F8284C41F8FD
:10031800284C53F8244C41F8244C53F8204C41F80D
:10032800204C53F81C4C41F81C4C53F8184C41F81D
:10033800184C53F8144C41F8144C53F8104C41F82D
:10034800104C53F80C4C41F80C4C53F8084C41F83D
:10035800084C53F8044C41F8044C561A1D460C46F8
:10036800403340313F2EB8DC2B460FE053F8101CC9
:1003780044F8101C53F80C1C44F80C1C53F8081CC7
:1003880044F8081C53F8041C44F8041C161B2146A6
:100398001D46103410330F2EE8DC2B4602E024688B
:1003A80041F8044B551A1C46032D03F10403F6DCEF
:1003B80090E700BF032AC9B270B408D82AB103462F
:1003C800121803F8011B9342FBD170BC70478218C6
:1003D800044601E004F8011B14F0030FFAD14FF0B2
:1003E800013303FB01F31FE044F8403C44F83C3C74
:1003F80044F8383C44F8343C44F8303C44F82C3C4D
:1004080044F8283C44F8243C44F8203C44F81C3C7C
:1004180044F8183C44F8143C44F8103C44F80C3CAC
:1004280044F8083C44F8043C161B254640343F2E4B
:10043800DADC2C4607E044F8103C44F80C3C44F85D
:10044800083C44F8043C161B254610340F2EF2DCF9
:1004580001E045F8043B541B032CFADC01E005F8E5
:10046800011B9542FBD3B0E741EA000313F0030FE9
:100478000B4670B414BF00240124032A94BF00243F
:1004880004F001040546D4B9BAB10E782B46013AF6
:1004980003F8016B56B1AC1C7AB111F8015F234621
:1004A800013A04F8015C0134002DF5D12AB19A18FB
:1004B800002103F8011B9342FBD170BC7047194619
:1004C80053F8044BA4F1013626EA040616F0803FDF
:1004D800DAD1043A45F8044B032A1946EFD8D3E792
:1004E80080B500AF4FF000604FF0000101F000F858
:1004F8004FF4407000F07EFF4FF0000000F00CF861
:100508004FF000004FF0010100F01EFD00F0EAF886
:1005180000F054F880BD00BF80B584B000AF03463A
:10052800FB714FF008004FF0010101F0C3F94FF4DF
:100538007043BB604FF00003BB734FF003037B7342
:100548004FF00003FB73FB79002B09D14FF0010337
:100558003B7307F108031848194601F095F827E09E
:100568004FF47043BB604FF002033B7307F108037D
:100578001148194601F088F80F484FF00C014FF068
:10058800020201F041F90C484FF00D014FF0020250
:1005980001F03AF908484FF00E014FF0020201F05D
:1005A80033F905484FF00F014FF0020201F02CF922
:1005B80007F11007BD4680BD000C024080B584B02D
:1005C80000AF4FF00003FB724FF00003FB604FF0E9
:1005D80040033B714FF000037B714FF00703BB7181
:1005E8004FF00003FB714FF000033B7207F1040367
:1005F800184600F019FD4FF040033B704FF0100310
:100608007B704FF02003BB703B46184600F03AFD64
:100618004FF00003FB6003E0FB6803F10103FB609C
:10062800FA682D4B9A42F7D94FF00703FB7207F18E
:100638000B0318464FF022014FF0010200F04CFD69
:100648004FF07003FB7207F10B0318464FF03801A7
:100658004FF0010200F040FD4FF0AA03FB7207F1D2
:100668000B0318464FF03B014FF0010200F034FD38
:100678004FF00A03FB7207F10B0318464FF03C01D9
:100688004FF0010200F028FD4FF00303FB7207F161
:100698000B0318464FF03D014FF0010200F01CFD1E
:1006A8004FF07F03FB7207F10B0318464FF03E0132
:1006B8004FF0010200F010FD4FF07F03FB7207F1CD
:1006C8000B0318464FF03F014FF0010200F004FD04
:1006D80007F11007BD4680BDFEFF010080B400AFE2
:1006E800FEE700BF80B58AB000AF4FF00003FB847F
:1006F8004FF004004FF0010101F0FEF83C4B1A687E
:100708003C4BA3FB02134FEA13239BB203F1FF33C5
:10071800FB8440F26C73BB60FB8CBB804FF0000322
:10072800BB814FF00003FB8007F1040332481946F0
:1007380001F0A0FA30484FF0010101F017FB4FF02B
:1007480060033B824FF001037B824FF47A73BB61F5
:100758004FF00003BB8307F110032748194601F047
:1007680045FB25484FF000014FF0000201F016FE4E
:1007780021484FF0080101F095FD07F110031E48CC
:10078800194601F0B7FB1C484FF004014FF0000276
:1007980001F004FE18484FF0080101F0A1FD07F12F
:1007A80010031548194601F03DFC13484FF00801A5
:1007B8004FF0000201F0F2FD0F484FF0080101F080
:1007C800AFFD07F110030C48194601F0C1FC0A48B7
:1007D8004FF00C014FF0000201F0E0FD06484FF029
:1007E800080101F0BBFD07F12807BD4680BD00BF29
:1007F80000000020D34D62100008004080B584B08E
:1008080004AF4FF001004FF0060102F091F80246E4
:100818005B4B1A604FF001004FF0000102F088F8BE
:100828000246584B1A60574B1B68002B0AD0554B91
:100838001B6818464FF000014FF000024FF000030C
:1008480002F0E6F84F4B1B6818464FF000014FF0D6
:1008580000024FF0000302F0EFF9FFF741FE4A4BA8
:100868004FF000020092494A01924FF000020292B2
:100878004FF000020392464819464FF0C802454B14
:1008880002F0CAFB444A454B4FF00001009144492D
:1008980001914FF0000102914FF0000103913C4893
:1008A80011464FF0C80202F0B7FB3E4A3E4B4FF0EC
:1008B800000100913D4901914FF0000102914FF074
:1008C80000010391324811464FF0C80202F0A4FB20
:1008D800374A384B4FF000010091374901914FF0EA
:1008E800000102914FF000010391294811464FF091
:1008F800C80202F091FB314B4FF0000200924FF01A
:10090800000201924FF0000202924FF0000203929F
:100918002B4819464FF0C8024FF0000302F07CFB49
:10092800284B4FF000020092274A01924FF0000234
:1009380002924FF000020392244819464FF0C80271
:100948004FF0000302F068FB214B4FF000020092C9
:10095800204A01924FF0000202924FF000020392E7
:100968001D4819464FF0C8024FF0000302F054FB2F
:1009780002F02AFD4FF000031846BD4680BD00BFB7
:1009880098C900202C0000201843000888C90020BE
:10099800990B0008604300082043000868430008DA
:1009A8008CC90020284300087043000890C9002023
:1009B800304300087843000894C9002038430008F1
:1009C800C10B00084043000884C90020E50900085D
:1009D800484300089CC90020250A000880B584B057
:1009E80000AF786007F1080318464FF029014FF06F
:1009F800060200F0A5FB084B1A6807F10803104629
:100A080019464FF000024FF0000302F001F84FF0D2
:100A18007D0002F0D7FBE5E798C9002080B586B0D5
:100A280000AF78604FF00003FB754FF000037B7553
:100A3800554B1A6807F10C03104619464FF000028F
:100A48004FF0000302F0F8F80346012B40F09980BC
:100A58004E484FF000014FF0000201F09FFC4B4858
:100A68004FF004014FF0000201F098FC47484FF0A6
:100A780008014FF0000201F091FC44484FF00C01CE
:100A88004FF0000201F08AFC3B7BDBB25BB2002B2B
:100A9800B8BF5B42BB75BB7BDBB25BB2002BB8BF98
:100AA8005B42FB75BA7DFB7D9A4228BF1346DBB2D9
:100AB8007B757B7DDBB2002B63D03B7BDBB25BB20B
:100AC80013F1020F10DA31484FF00C014FF0010218
:100AD80001F064FC7B7DDBB24FF47A7292FBF3F396
:100AE8002A48194601F0D0FB3B7BDBB25BB2022BF4
:100AF80010DD26484FF004014FF0010201F04EFCD2
:100B08007B7DDBB24FF47A7292FBF3F31F481946F0
:100B180001F09EFBBB7BDBB25BB2022B10DD1B48F6
:100B28004FF000014FF0010201F038FC7B7DDBB291
:100B38004FF47A7292FBF3F31448194601F07AFBEA
:100B4800BB7BDBB25BB213F1020F10DA0F484FF038
:100B580008014FF0010201F021FC7B7DDBB24FF46C
:100B68007A7292FBF3F30948194601F07FFB7B7D0B
:100B7800DBB240F26C7292FBF3F30448194601F0C1
:100B8800E7F801F099FD53E798C9002000080040F4
:100B980080B584B000AF78607B68FB60FB681B6839
:100BA800DBB2184600F0B2F9FB6803F104031B68D6
:100BB800184602F007FBF1E780B582B000AF786015
:100BC800344B1B6818464FF000014FF000024FF0FD
:100BD800000302F031F80346012B58D12E4B1B6855
:100BE80083F001022C4B1A602B4B1B68002B27D17A
:100BF8002A4B1B68184602F011FB29484FF00001E8
:100C080001F0D4F8274B1B68184602F007FB4FF099
:100C18000000FFF781FC244B1B68184602F07EFB9E
:100C2800214B5B68184602F079FB1F4B9B681846FE
:100C380002F074FB1C4BDB68184602F06FFB26E0E1
:100C4800194B1B68184602F0E9FA174B5B681846FF
:100C580002F0E4FA144B9B68184602F0DFFA124BD4
:100C6800DB68184602F0DAFA4FF00100FFF754FC8F
:100C78000B484FF0010101F099F8084B1B68184622
:100C880002F04CFB074B1B68184602F047FB01F0CB
:100C980013FD95E72C000020300000209CC900209F
:100CA8000008004084C9002088C9002080B582B0AF
:100CB80000AF01F08FFC03467B607B6807F10807F3
:100CC800BD4680BD80B483B000AF78603960FEE770
:100CD800002103E00E4B5B58435004310D480E4B86
:100CE80042189A42F6D30D4A02E0002342F8043B28
:100CF8000B4B9A42F9D30B48016841F4700101602B
:100D080000F056F8FFF754FAFFF778FD7047000037
:100D1800D8430008000000202800002028000020F8
:100D2800A4C9002088ED00E0FEE7000080B400AF11
:100D3800BD4680BC704700BF80B400AFFEE700BF6F
:100D480080B400AFFEE700BF80B400AFFEE700BF8D
:100D580080B400AFFEE700BF80B400AFBD4680BCE2
:100D6800704700BF80B500AF0F4B4FF000021A600C
:100D78004FF0010000F050FC0346002B13D00B4B42
:100D88001B6818464FF00001074A4FF0000301F0B6
:100D9800E9FE4FF0010000F069FC034B1B68002BD3
:100DA80001D001F089FC80BDA0C900202C000020E2
:100DB80080B500AF124B124A126842F001021A6065
:100DC8000F4B4FF000029A600D4A0D4B1B6823F041
:100DD800847323F480331360094B0A4A5A60084B22
:100DE800074A126822F480221A60054B4FF000026D
:100DF800DA6000F00BF8044B4FF000629A6080BD97
:100E0800003802401030002400ED00E080B483B0C8
:100E180000AF4FF000037B604FF000033B60374B9F
:100E2800364A126842F480321A60344B1B6803F465
:100E380000333B607B6803F101037B603B68002B58
:100E480003D17B68B3F5A06FEFD12C4B1B6803F47B
:100E58000033002B03D04FF001033B6002E04FF05A
:100E680000033B603B68012B42D1244B234A126CA0
:100E780042F080521A64224B214A126842F480429E
:100E88001A601E4B1D4A92689A601C4B1B4A926856
:100E980042F400429A60194B184A926842F4A052F0
:100EA8009A60164B174A5A60144B144A126842F05B
:100EB80080721A6000BF114B1B6803F00073002B8F
:100EC800F9D0114B40F205621A600C4B0B4A92683C
:100ED80022F003029A60094B084A926842F0020223
:100EE8009A6000BF054B9B6803F00C03082BF9D1EF
:100EF80007F10C07BD4680BC704700BF00380240B0
:100F08000070004019544007003C024080B483B090
:100F180000AF0346FB71FA79094B53F82230F9798F
:100F2800074A52F821205169F879064A32F8102008
:100F380081EA02025A6107F10C07BD4680BC70477E
:100F4800040000208043000880B588B000AF024646
:100F58000B46FA71BB71FA792C4B53F822301846BC
:100F68004FF0010100F0A6FC4FF480404FF0010162
:100F780000F0E4FC4FF000033B774FF00003FB77F1
:100F8800FA79234B33F81230BB61FA79214B53F8C5
:100F9800222007F118031046194600F075FBBB79AB
:100FA800012B2ED1FB791C4AD25CFB791B49CB5C07
:100FB8001046194600F010FEFA79194B33F8123032
:100FC8003B614FF000033B754FF008037B754FF012
:100FD8000103BB7507F11003184600F09FFAFB796F
:100FE800104AD35C3B734FF00F037B734FF00F0332
:100FF800BB734FF00103FB7307F10C03184600F0B5
:101008000BFA07F12007BD4680BD00BF8C430008DE
:1010180088430008140000209443000898430008FF
:10102800904300089C43000880B584B000AF786006
:101038004FF00003FB7300F0BFF87B685A787B68B9
:101048001B7842EA0303DAB27B68DB7842EA0303DF
:10105800DAB27B681B7942EA0303DAB27B689B78D1
:1010680042EA0303DBB2FB7307F10F0318464FF0A4
:1010780020014FF0010200F02FF807F11007BD46DC
:1010880080BD00BF80B584B000AF78604FF000032A
:10109800FB7307F10F0318464FF038014FF00102B8
:1010A80000F04EF87B681A787B685B7842EA0303A5
:1010B800DAB27B689B7842EA0303DBB2FB7307F181
:1010C8000F0318464FF038014FF0010200F004F802
:1010D80007F11007BD4680BD80B582B000AF7860CB
:1010E80013460A46FA703B803B88012B03D9FB78EC
:1010F80043F04003FB7011484FF0080100F076FB05
:10110800FB78184600F01EF90CE07B681B7818463F
:1011180000F018F93B8803F1FF333B807B6803F14B
:1011280001037B603B88002BEFD104484FF0080196
:1011380000F04EFB07F10807BD4680BD00100240D5
:1011480080B582B000AF786013460A46FA703B80DB
:101158003B88012B04D9FB7863F03F03FB7003E065
:10116800FB7863F07F03FB7012484FF0080100F032
:101178003DFBFB78184600F0E5F80FE04FF0000063
:1011880000F0E0F803461A467B681A703B8803F1C2
:10119800FF333B807B6803F101037B603B88002BB6
:1011A800ECD104484FF0080100F012FB07F10807E2
:1011B800BD4680BD0010024080B588B000AF4FF436
:1011C80080504FF0010100F0B9FB4FF001004FF0E3
:1011D800010100F06FFB4FF010004FF0010100F02B
:1011E80069FB4FF010004FF0010100F063FB4FF076
:1011F80010004FF0010100F05DFB4F484FF0050172
:101208004FF0050200F000FB4B484FF006014FF08D
:10121800050200F0F9FA48484FF007014FF00502BF
:1012280000F0F2FA4FF002033B774FF00003BB7770
:101238004FF00203FB774FF002037B774FF0200358
:10124800BB6107F118033C48194600F01DFA4FF03E
:101258008003BB6107F118033748194600F014FAF8
:101268004FF04003BB6107F118033348194600F0FB
:101278000BFA324800F0C8FB4FF00003BB804FF078
:1012880000033B814FF000037B814FF00003BB81DB
:101298004FF40073FB814FF008033B824FF00003CB
:1012A8007B824FF00703BB824FF48273FB8007F108
:1012B80004032248194600F0E7FB20484FF00101DB
:1012C80000F02EFC4FF00803BB614FF001033B77A1
:1012D8004FF00003BB774FF002037B7707F1180349
:1012E8001748194600F0D0F915484FF0080100F0EA
:1012F8006FFA4FF00103BB614FF000033B774FF0EB
:101308000003BB774FF002037B774FF00003FB77B6
:1013180007F118030A48194600F0B6F94FF002031E
:10132800BB6107F118030648194600F0ADF907F14B
:101338002007BD4680BD00BF0000024000300140CC
:101348000010024080B582B000AF0346FB71274B06
:101358004FF480521A6011E0244B1B68002B14BF15
:1013680000220122D2B203F1FF31204B1960002A7A
:1013780004D0FFF7B3F90346DBB231E01C484FF065
:10138800020100F009FC0346002BE5D0FB799BB273
:101398001748194600F0F2FB144B4FF480521A60BC
:1013A80011E0124B1B68002B14BF00220122D2B29D
:1013B80003F1FF310D4B1960002A04D0FFF78EF9B5
:1013C8000346DBB20CE00A484FF0010100F0E4FBF1
:1013D8000346002BE5D0064800F0C2FB0346DBB20B
:1013E800184607F10807BD4680BD00BF1800002059
:1013F8000030014080B483B000AF7860054A7B6854
:1014080043F0BE6343F42023D36007F10C07BD46C5
:1014180080BC704700ED00E080B485B000AF786014
:101428004FF00003FB734FF00003BB734FF00F0343
:101438007B737B68DB78002B3ED02B4BDB686FEA35
:10144800030303F4E0634FEA1323FB73FB7BC3F14D
:101458000403BB737A7BFB7B42FA03F37B737B68E1
:101468005B781A46BB7B02FA03F3FB737B689A78B6
:101478007B7B02EA0303DAB2FB7B42EA0303FB73DA
:10148800FB7B4FEA0313FB73184A7B681B78D3185E
:10149800FA7B83F80023154B7A6812784FEA5212C8
:1014A800D2B27968097801F01F014FF0010000FA03
:1014B80001F143F8221011E00C4B7A6812784FEAD8
:1014C8005212D2B27968097801F01F014FF0010079
:1014D80000FA01F102F1200243F8221007F1140783
:1014E800BD4680BC704700BF00ED00E000E100E0B1
:1014F80080B483B000AF78603960074A3B6823F056
:10150800604323F07F0379680B43936007F10C076E
:10151800BD4680BC704700BF00ED00E080B485B0D8
:1015280000AF78604FF00003FB603A4BFB607B68CC
:101538009B79002B59D0374B364A11687A68126864
:101548006FEA020201EA02021A60324B314A51681C
:101558007A6812686FEA020201EA02025A607B683E
:101568001B79FA68D318FB60FB68FA6811687A6817
:10157800126841EA02021A60264B264A91687A6884
:1015880012686FEA020201EA02029A60214B214ABC
:10159800D1687A6812686FEA020201EA0202DA6028
:1015A8007B685B79102B10D11A4B1A4A91687A68BC
:1015B800126841EA02029A60164B164AD1687A68A4
:1015C800126841EA0202DA601EE0124BFB607B6897
:1015D8005B79FA68D318FB60FB68FA6811687A6867
:1015E800126841EA02021A600EE07B681B79FA6809
:1015F800D318FB60FB68FA6811687A6812686FEAAA
:10160800020201EA02021A6007F11407BD4680BC13
:10161800704700BF003C014080B485B000AF7860DF
:101628004FF00003FB734FF00003BB600E4B1A68CA
:101638007B6802EA0303BB600B4B5A697B6802EACA
:101648000303002B06D0BB68002B03D04FF0010327
:10165800FB7302E04FF00003FB73FB7B184607F1B6
:101668001407BD4680BC7047003C014080B483B07D
:1016780000AF7860034B7A685A6107F10C07BD46E2
:1016880080BC7047003C014080B487B000AF7860F0
:1016980039604FF000037B614FF000033B614FF06E
:1016A8000003FB604FF000037B6187E07B694FF02C
:1016B800010202FA03F33B613B681A683B6902EADC
:1016C8000303FB60FA683B699A4273D17B681A6826
:1016D8007B694FEA43034FF0030101FA03F36FEA12
:1016E80003031A407B681A607B681A683B681B7999
:1016F80019467B694FEA430301FA03F31A437B68EF
:101708001A603B681B79012B03D03B681B79022BBD
:1017180034D17B689A687B694FEA43034FF0030131
:1017280001FA03F36FEA03031A407B689A607B6847
:101738009A683B685B7919467B694FEA430301FA6B
:1017480003F31A437B689A607B685A687B699BB28B
:101758004FF0010101FA03F36FEA03031A407B68B3
:101768005A607B685A683B689B7919467B699BB2CB
:1017780001FA03F39BB21A437B685A607B68DA6804
:101788007B699BB24FEA43034FF0030101FA03F36D
:101798006FEA03031A407B68DA607B68DA683B68A3
:1017A800DB7919467B694FEA430301FA03F31A43CD
:1017B8007B68DA607B6903F101037B617B690F2B2E
:1017C8007FF674AF07F11C07BD4680BC704700BFA9
:1017D80080B483B000AF78600B467B807B687A88E2
:1017E8001A8307F10C07BD4680BC704780B483B0EC
:1017F80000AF78600B467B807B687A885A8307F154
:101808000C07BD4680BC704780B485B000AF7860D7
:1018180013460A467A807B704FF00003FB604FF056
:101828000003BB607A787B8803F007034FEA8303E1
:1018380002FA03F3FB607B884FEAD3039BB21A4694
:101848007B884FEAD3039BB219467B6801F10801F4
:1018580053F821107B8803F007034FEA83034FF006
:101868000F0000FA03F36FEA030319407B6802F1E3
:10187800080243F822107B884FEAD3039BB21A462A
:101888007B6802F1080253F82220FB6842EA03034E
:10189800BB607B884FEAD3039BB21A467B6802F190
:1018A8000802B96843F8221007F11407BD4680BC46
:1018B800704700BF80B483B000AF78600B46FB7000
:1018C800FB78002B07D00B4B0A4A116B7A6841EA68
:1018D80002021A6308E0074B064A116B7A686FEA3E
:1018E800020201EA02021A6307F10C07BD4680BC36
:1018F800704700BF0038024080B483B000AF786002
:101908000B46FB70FB78002B07D00B4B0A4A116C77
:101918007A6841EA02021A6408E0074B064A116C29
:101928007A686FEA020201EA02021A6407F10C07F8
:10193800BD4680BC704700BF0038024080B483B009
:1019480000AF78600B46FB70FB78002B07D00B4B81
:101958000A4A516C7A6841EA02025A6408E0074B65
:10196800064A516C7A686FEA020201EA02025A6476
:1019780007F10C07BD4680BC704700BF0038024025
:1019880080B483B000AF78600B46FB70FB78002B07
:1019980007D00B4B0A4A116A7A6841EA02021A62B6
:1019A80008E0074B064A116A7A686FEA020201EA00
:1019B80002021A6207F10C07BD4680BC704700BFDF
:1019C8000038024080B483B000AF78600B46FB70EB
:1019D800FB78002B07D00B4B0A4A516A7A6841EA18
:1019E80002025A6208E0074B064A516A7A686FEAAF
:1019F800020201EA02025A6207F10C07BD4680BCE6
:101A0800704700BF0038024080B582B000AF7860F0
:101A18007A681A4B9A420CD14FF480504FF001016A
:101A2800FFF7D0FF4FF480504FF00001FFF7CAFFD7
:101A380020E07A68124B9A420CD14FF480404FF064
:101A48000101FFF79DFF4FF480404FF00001FFF7C1
:101A580097FF0FE07A680B4B9A420BD14FF4004086
:101A68004FF00101FFF78CFF4FF400404FF00001E9
:101A7800FFF786FF07F10807BD4680BD003001402B
:101A880000380040003C004080B485B000AF78606A
:101A980039604FF00003FB817B681B88FB81FB8961
:101AA80003F44153FB813B681A883B685B8842EA30
:101AB80003039AB23B689B8842EA03039AB23B68E5
:101AC800DB8842EA03039AB23B681B8942EA0303B4
:101AD8009AB23B685B8942EA03039AB23B689B89E6
:101AE80042EA03039AB23B68DB8942EA03039AB2EB
:101AF800FB8942EA0303FB817B68FA891A807B68C9
:101B08009B8B9BB223F400639AB27B689A833B68F1
:101B18001A8A7B681A8207F11407BD4680BC704791
:101B280080B483B000AF78600B46FB70FB78002B65
:101B380008D07B681B889BB243F040039AB27B684D
:101B48001A8007E07B681B889BB223F040039AB297
:101B58007B681A8007F10C07BD4680BC704700BF40
:101B680080B483B000AF78607B689B899BB21846CD
:101B780007F10C07BD4680BC704700BF80B483B036
:101B880000AF78600B467B807B687A889A8107F182
:101B98000C07BD4680BC704780B485B000AF786044
:101BA8000B467B804FF00003FB737B681B899AB25E
:101BB8007B8802EA03039BB2002B03D04FF001039A
:101BC800FB7302E04FF00003FB73FB7B184607F141
:101BD8001407BD4680BC704790B484B000AF02467D
:101BE8000B46FA71BB714FF00003FB60BB7903F041
:101BF80003034FEA83034FF00F0202FA03F3FB607B
:101C08001B4BBA794FEA9202D2B21949B8794FEA16
:101C18009000C0B200F1020051F82000F9686FEAA4
:101C2800010100EA010102F1020243F82210104BFF
:101C3800BA794FEA9202D2B20D49B8794FEA9000C8
:101C4800C0B200F1020051F82000FC79B97901F026
:101C580003014FEA810104FA01F140EA010102F1AE
:101C6800020243F8221007F11007BD4690BC7047E6
:101C78000038014080B485B000AF786039604FF01B
:101C88000003FB817B681B88FB817A68294B9A4299
:101C980013D07A68284B9A420FD07B68B3F1804FF3
:101CA8000BD07A68254B9A4207D07A68244B9A421F
:101CB80003D07A68234B9A4209D1FB8923F0700339
:101CC800FB813B685A88FB8942EA0303FB817A68F7
:101CD8001D4B9A420DD07A681C4B9A4209D0FB8959
:101CE80023F44073FB813B681A89FB8942EA0303AA
:101CF800FB817B68FA891A803B685A687B68DA62DC
:101D08003B681A887B681A857A680A4B9A4203D01E
:101D18007A68094B9A4204D13B689B7A1A467B68D9
:101D28001A867B684FF001029A8207F11407BD46B4
:101D380080BC7047000001400004014000040040DE
:101D480000080040000C0040001000400014004053
:101D580080B483B000AF786039607B683A68DA6233
:101D680007F10C07BD4680BC704700BF80B483B044
:101D780000AF78600B46FB70FB78002B08D07B68BF
:101D88001B889BB243F080039AB27B681A8007E0F5
:101D98007B681B889BB223F080039AB27B681A8009
:101DA80007F10C07BD4680BC704700BF80B483B004
:101DB80000AF78600B46FB70FB78002B08D07B687F
:101DC8001B889BB243F001039AB27B681A8007E034
:101DD8007B681B889BB223F001039AB27B681A8048
:101DE80007F10C07BD4680BC704700BF80B485B0C2
:101DF80000AF786039604FF000037B814FF000033B
:101E0800FB814FF00003BB817B681B8C9BB223F0E6
:101E180001039AB27B681A847B681B8CFB817B6800
:101E28009B88BB817B681B8B7B817B8923F070033C
:101E38007B817B8923F003037B813B681A887B893C
:101E480042EA03037B81FB8923F00203FB813B68A1
:101E58009A89FB8942EA0303FB813B685A88FB891C
:101E680042EA0303FB817A68204B9A4203D07A68DE
:101E78001F4B9A4227D1FB8923F00803FB813B685B
:101E8800DA89FB8942EA0303FB81FB8923F0040317
:101E9800FB813B689A88FB8942EA0303FB81BB8983
:101EA80023F48073BB81BB8923F40073BB813B6837
:101EB8001A8ABB8942EA0303BB813B685A8ABB89F9
:101EC80042EA0303BB817B68BA899A807B687A8976
:101ED8001A833B689A687B685A637B68FA891A8414
:101EE80007F11407BD4680BC704700BF00000140E1
:101EF8000004014080B485B000AF786039604FF0CD
:101F080000037B814FF00003FB814FF00003BB818E
:101F18007B681B8C9BB223F010039AB27B681A84EF
:101F28007B681B8CFB817B689B88BB817B681B8BD8
:101F38007B817B8923F4E0437B817B8923F4407395
:101F48007B813B681B884FEA03239AB27B8942EA6C
:101F580003037B81FB8923F02003FB813B689B897A
:101F68004FEA03139AB2FB8942EA0303FB813B68F9
:101F78005B884FEA03139AB2FB8942EA0303FB81A9
:101F88007A68264B9A4203D07A68254B9A4233D115
:101F9800FB8923F08003FB813B68DB894FEA03134D
:101FA8009AB2FB8942EA0303FB81FB8923F04003D1
:101FB800FB813B689B884FEA03139AB2FB8942EA8C
:101FC8000303FB81BB8923F48063BB81BB8923F4B2
:101FD8000063BB813B681B8A4FEA83039AB2BB89C3
:101FE80042EA0303BB813B685B8A4FEA83039AB2E8
:101FF800BB8942EA0303BB817B68BA899A807B6804
:102008007A891A833B689A687B689A637B68FA893D
:102018001A8407F11407BD4680BC704700000140D0
:102028000004014080B485B000AF786039604FF09B
:1020380000037B814FF00003FB814FF00003BB815D
:102048007B681B8C9BB223F480739AB27B681A84DA
:102058007B681B8CFB817B689B88BB817B689B8B27
:102068007B817B8923F070037B817B8923F00303C9
:102078007B813B681A887B8942EA03037B81FB8961
:1020880023F40073FB813B689B894FEA03239AB2D0
:10209800FB8942EA0303FB813B685B884FEA032321
:1020A8009AB2FB8942EA0303FB817A68264B9A427B
:1020B80003D07A68254B9A4233D1FB8923F4006315
:1020C800FB813B68DB894FEA03239AB2FB8942EA2A
:1020D8000303FB81FB8923F48063FB813B689B88B6
:1020E8004FEA03239AB2FB8942EA0303FB81BB89C7
:1020F80023F48053BB81BB8923F40053BB813B6825
:102108001B8A4FEA03139AB2BB8942EA0303BB81D5
:102118003B685B8A4FEA03139AB2BB8942EA03031E
:10212800BB817B68BA899A807B687A899A833B6885
:102138009A687B68DA637B68FA891A8407F114075E
:10214800BD4680BC704700BF00000140000401404C
:1021580080B485B000AF786039604FF00003BB8170
:102168004FF000037B814FF00003FB817B681B8CE1
:102178009BB223F480539AB27B681A847B681B8CC9
:102188007B817B689B88FB817B689B8BBB81BB8940
:1021980023F4E043BB81BB8923F44073BB813B68D4
:1021A8001B884FEA03239AB2BB8942EA0303BB8127
:1021B8007B8923F400537B813B689B894FEA033377
:1021C8009AB27B8942EA03037B813B685B884FEACA
:1021D80003339AB27B8942EA03037B817A68134B03
:1021E8009A4203D07A68124B9A420CD1FB8923F4A5
:1021F8008043FB813B681B8A4FEA83139AB2FB89B1
:1022080042EA0303FB817B68FA899A807B68BA8972
:102218009A833B689A687B681A647B687A891A840F
:1022280007F11407BD4680BC704700BF000001409D
:102238000004014080B483B000AF786039607B68E7
:102248003A685A6307F10C07BD4680BC704700BF67
:1022580080B483B000AF786039607B683A689A636D
:1022680007F10C07BD4680BC704700BF80B483B03F
:1022780000AF786039607B683A68DA6307F10C0769
:10228800BD4680BC704700BF80B483B000AF7860A3
:1022980039607B683A681A6407F10C07BD4680BC50
:1022A800704700BF80B485B000AF78600B467B8074
:1022B8004FF00003FB817B681B8BFB81FB8923F0BC
:1022C8000803FB81FA897B8842EA0303FB817B6868
:1022D800FA891A8307F11407BD4680BC704700BF0E
:1022E80080B485B000AF78600B467B804FF0000368
:1022F800FB817B681B8BFB81FB8923F40063FB81DB
:102308007B884FEA03239AB2FB8942EA0303FB81E5
:102318007B68FA891A8307F11407BD4680BC7047A9
:1023280080B485B000AF78600B467B804FF0000327
:10233800FB817B689B8BFB81FB8923F00803FB8176
:10234800FA897B8842EA0303FB817B68FA899A83CE
:1023580007F11407BD4680BC704700BF80B485B044
:1023680000AF78600B467B804FF00003FB817B68F1
:102378009B8BFB81FB8923F40063FB817B884FEAFD
:1023880003239AB2FB8942EA0303FB817B68FA893B
:102398009A8307F11407BD4680BC704780B485B0A6
:1023A80000AF786013460A467A803B804FF00003FE
:1023B800FB817B884FF0010202FA03F3FB817B6803
:1023C8001B8C9AB2FB896FEA03039BB202EA0303F0
:1023D8009AB27B681A847B681B8C9AB239887B888E
:1023E80001FA03F39BB242EA03039AB27B681A84A8
:1023F80007F11407BD4680BC704700BF80B58AB09E
:1024080000AF78604FF00003FB6101F021F84C4BFE
:102418001B68002B1BD14B4A4B4B1A604A4B4FF0A1
:1024280000025A60494B4FF448425A60474B4FF0FC
:1024380000021A60434B7B617B694FF448425A6043
:102448007B69424A1A603E4B4FF001021A607B6872
:10245800002B0FD03E4B1B887A68D3187B607B68B3
:1024680003F00703002B05D07B6823F0070303F173
:1024780008037B607B68002B5AD07A684CF2FF73A4
:102488009A4255D8304B3B622F4B1B687B6204E065
:102498007B6A3B627B6A1B687B627B6A5A687B68E3
:1024A8009A4203D27B6A1B68002BF1D17A6A274BC8
:1024B8009A423DD03B6A1A68254B1B88D318FB61AA
:1024C8007B6A1A683B6A1A607B6A5A687B68D21A08
:1024D8001F4B1B884FEA43039A4222D97A6A7B68CA
:1024E800D3183B617B6A5A687B68D21A3B695A6089
:1024F8007B6A7A685A603B695B68FB60124BBB6118
:1025080002E0BB691B68BB61BB691B685A68FB6852
:102518009A42F6D3BB691A683B691A60BB693A6983
:102528001A600C4B1A687B6A5B68D21A094B1A60EE
:1025380000F09CFFFB69184607F12807BD4680BDDF
:1025480048C800203800002038C8002040C80020B3
:10255800A04300081C00002080B586B000AF78605A
:102568007B683B617B68002B29D0174B1B88C3F124
:1025780000033A69D3183B613B69FB6000F068FFD0
:10258800FB685B68BB60114B7B6102E07B691B6881
:102598007B617B691B685A68BB689A42F6D37B6982
:1025A8001A68FB681A607B69FA681A60FB685A68DF
:1025B800074B1B68D218064B1A6000F057FF07F14B
:1025C8001807BD4680BD00BFA043000838C80020DA
:1025D8001C00002080B400AF024B1B681846BD46A3
:1025E80080BC70471C00002080B485B000AFF86044
:1025F800B9607A60FB68A3F10403FB60FB684FF0E5
:1026080080721A60FB68A3F10403FB60BA68FB6878
:102618001A60FB68A3F10403FB60FB684FF000023B
:102628001A60FB68A3F11403FB607A68FB681A6000
:10263800FB68A3F12003FB60FB68184607F1140749
:10264800BD4680BC704700BF064B19680868B0E8F3
:10265800F00F80F309884FF0000080F311884EF0E6
:102668000D0E70474CC8002003480068006880F3CE
:10267800088862B600DF00BF08ED00E080B500AF53
:102688000B4B0B4A126842F470021A60084B084A56
:10269800126842F070421A6000F07AF8054B4FF069
:1026A80000021A60FFF7E0FF4FF00003184680BDF4
:1026B80020ED00E02000002080B400AF034B4FF075
:1026C80080521A60BD4680BC704700BF04ED00E030
:1026D80080B400AF4FF0500080F31188044B1B68A2
:1026E80003F10102024B1A60BD4680BC704700BF6F
:1026F8002000002080B400AF084B1B6803F1FF32B4
:10270800064B1A60054B1B68002B03D14FF00000E5
:1027180080F31188BD4680BC704700BF20000020B0
:10272800EFF309800C4B1A6820E9F00F10602DE9CF
:1027380008404FF0500080F3118800F0E5FF4FF09B
:10274800000080F31188BDE8084019680868B0E8FF
:10275800F00F80F3098870474CC8002080B582B01C
:1027680000AF0A4B4FF080521A604FF000037B60B5
:102778004FF0500080F3118800F01CFF4FF000006C
:1027880080F3118807F10807BD4680BD04ED00E01D
:1027980080B400AF054B43F67F621A60044B4FF0DC
:1027A80007021A60BD4680BC704700BF14E000E015
:1027B80010E000E080B483B000AF78607B6803F17C
:1027C80008031A467B685A607B684FF0FF329A60AC
:1027D8007B6803F108031A467B68DA607B6803F1BB
:1027E80008031A467B681A617B684FF000021A607A
:1027F80007F10C07BD4680BC704700BF80B483B0AA
:1028080000AF78607B684FF000021A6107F10C078F
:10281800BD4680BC704700BF80B485B000AF78600B
:1028280039607B685B68FB60FB685A683B685A6084
:102838007B685A683B689A60FB685B683A689A608C
:102848003A68FB685A603A687B685A603B687A68FD
:102858001A617B681B6803F101027B681A6007F143
:102868001407BD4680BC704780B485B000AF78605F
:1028780039603B681B68BB60BB68B3F1FF3F03D19D
:102888007B681B69FB600DE07B6803F10803FB6054
:1028980002E0FB685B68FB60FB685B681A68BB6802
:1028A8009A42F6D9FB685A683B685A603B685B688D
:1028B8003A689A603B68FA689A603A68FB685A60B6
:1028C8003B687A681A617B681B6803F101027B68C0
:1028D8001A6007F11407BD4680BC704780B485B004
:1028E80000AF78607B685B687A6892689A607B68FA
:1028F8009B687A6852685A607B681B69FB60FB6852
:102908005A687B689A4203D17B689A68FB685A6068
:102918007B684FF000021A61FB681B6803F1FF3205
:10292800FB681A6007F11407BD4680BC704700BFFA
:1029380080B586B000AF786039604FF000037B61E6
:102948007B68002B56D04FF04C00FFF757FD03462D
:102958003B613B69002B4DD07B683A6802FB03F36F
:1029680003F10103FB60F868FFF748FD03461A46C8
:102978003B691A603B691B68002B38D03B691A68B1
:102988007B68396801FB03F3D2183B695A603B69DD
:102998004FF000029A633B691A683B699A603B6989
:1029A8001A687B6803F1FF33396801FB03F3D21817
:1029B8003B69DA603B697A68DA633B693A681A64AA
:1029C8003B694FF0FF325A643B694FF0FF329A641B
:1029D8003B6903F110031846FFF7ECFE3B6903F16E
:1029E80024031846FFF7E6FE3B697B6102E038697D
:1029F800FFF7B2FD7B69002B04D14FF0500080F344
:102A08001188FEE77B69184607F11807BD4680BDA7
:102A180080B588B000AFF860B9607A603B604FF06D
:102A28000003FB61FB68002B04D14FF0500080F3DA
:102A38001188FEE7BB68002B03D1FB681B6C002BD9
:102A480002D14FF0010301E04FF00003002B05D144
:102A58004FF0500080F31188FEE700BFFFF738FE03
:102A6800FB689A6BFB68DB6B9A4218D2F868B96806
:102A78003A6800F0A9F9FB685B6A002B0AD0FB688A
:102A880003F12403184600F031FF0346012B01D15E
:102A9800FFF712FEFFF72EFE4FF001035DE07B68A3
:102AA800002B04D1FFF726FE4FF0000355E0FB6929
:102AB800002B07D107F11403184600F079FF4FF0F7
:102AC8000103FB61FFF716FE00F0C2FCFFF700FEF2
:102AD800FB685B6CB3F1FF3F03D1FB684FF000026A
:102AE8005A64FB689B6CB3F1FF3F03D1FB684FF05E
:102AF80000029A64FFF7FEFD07F1140207F10403D0
:102B08001046194600F072FF0346002B1ED1F868E4
:102B180000F03CFA0346002B12D0FB6803F11002C8
:102B28007B681046194600F079FEF86800F0C8F98D
:102B380000F09CFC0346002B8FD1FFF7BDFD8DE70D
:102B4800F86800F0BDF900F091FC87E7F86800F03C
:102B5800B7F900F08BFC4FF00003184607F1200787
:102B6800BD4680BD80B586B000AFF860B9607A60B8
:102B78003B60FB68002B04D14FF0500080F31188B4
:102B8800FEE77B68002B04D14FF0500080F31188DA
:102B9800FEE7BB68002B03D1FB681B6C002B02D13E
:102BA8004FF0010301E04FF00003002B04D14FF078
:102BB800500080F31188FEE74FF000033B614FF0AF
:102BC800500080F31188FB689A6BFB68DB6B9A42B4
:102BD80025D2F868B9683A6800F0F6F8FB689B6C8B
:102BE800B3F1FF3F11D1FB685B6A002B13D0FB6880
:102BF80003F12403184600F079FE0346002B0AD09F
:102C08007B684FF001021A6005E0FB689B6C03F1DA
:102C18000102FB689A644FF001037B6102E04FF008
:102C280000037B614FF0000080F311887B69184630
:102C380007F11807BD4680BD80B588B000AFF860C1
:102C4800B9607A603B604FF00003FB61FB68002BC2
:102C580004D14FF0500080F31188FEE7BB68002BC9
:102C680003D1FB681B6C002B02D14FF0010301E07C
:102C78004FF00003002B05D14FF0500080F311886E
:102C8800FEE700BFFFF724FDFB689B6B002B36D0E7
:102C9800FB68DB68BB61F868B96800F0E9F83B6875
:102CA800002B15D1FB689B6B03F1FF32FB689A631D
:102CB800FB681B69002B1DD0FB6803F11003184645
:102CC80000F014FE0346012B14D1FFF7F5FC11E0C8
:102CD800FB68BA69DA60FB685B6A002B0AD0FB689C
:102CE80003F12403184600F001FE0346002B01D02F
:102CF800FFF7E2FCFFF7FEFC4FF001035EE07B68A4
:102D0800002B04D1FFF7F6FC4FF0000356E0FB69F7
:102D1800002B07D107F11003184600F049FE4FF0C9
:102D28000103FB61FFF7E6FC00F092FBFFF7D0FC24
:102D3800FB685B6CB3F1FF3F03D1FB684FF0000207
:102D48005A64FB689B6CB3F1FF3F03D1FB684FF0FB
:102D580000029A64FFF7CEFC07F1100207F10403A2
:102D68001046194600F042FE0346002B1FD1F868B2
:102D780000F0F6F80346002B13D0FB6803F1240299
:102D88007B681046194600F049FDF86800F098F88D
:102D980000F06CFB0346002B7FF473AFFFF78CFC4D
:102DA80070E7F86800F08CF800F060FB6AE7F868F4
:102DB80000F086F800F05AFB4FF00003184607F1C0
:102DC8002007BD4680BD00BF80B584B000AFF86065
:102DD800B9607A60FB681B6C002B3ED07B68002BC7
:102DE8001AD1FB689A68FB681B6C1046B9681A46CA
:102DF800FDF738FAFB689A68FB681B6CD218FB6809
:102E08009A60FB689A68FB685B689A4225D3FB68FE
:102E18001A68FB689A6020E0FB68DA68FB681B6C3C
:102E28001046B9681A46FDF71DFAFB68DA68FB68B0
:102E38001B6CC3F10003D218FB68DA60FB68DA6820
:102E4800FB681B689A4208D2FB685A68FB681B6CCF
:102E5800C3F10003D218FB68DA60FB689B6B03F1CF
:102E68000102FB689A6307F11007BD4680BD00BFE9
:102E780080B582B000AF786039607B681B68002B32
:102E880019D07B68DA687B681B6CD2187B68DA60BB
:102E98007B68DA687B685B689A4203D37B681A6848
:102EA8007B68DA607B68DA687B681B6C3868114677
:102EB8001A46FDF7D7F907F10807BD4680BD00BFE0
:102EC80080B582B000AF7860FFF702FC14E07B6841
:102ED8005B6A002B15D07B6803F12403184600F0C9
:102EE80005FD0346002B01D000F0DAFD7B689B6CE2
:102EF80003F1FF327B689A647B689B6C002BE6DCED
:102F080000E000BF7B684FF0FF329A64FFF7F2FBE6
:102F1800FFF7DEFB14E07B681B69002B15D07B688C
:102F280003F11003184600F0E1FC0346002B01D022
:102F380000F0B6FD7B685B6C03F1FF327B685A6476
:102F48007B685B6C002BE6DC00E000BF7B684FF021
:102F5800FF325A64FFF7CEFB07F10807BD4680BD74
:102F680080B584B000AF7860FFF7B2FB7B689B6BDD
:102F7800002B14BF00230123FB60FFF7BBFBFB689A
:102F8800184607F11007BD4680BD00BF80B584B064
:102F980000AF7860FFF79CFB7B689A6B7B68DB6B04
:102FA8009A4214BF00230123FB60FFF7A3FBFB68D1
:102FB800184607F11007BD4680BD00BF80B582B036
:102FC80000AF78603960FFF783FB7B685B6CB3F117
:102FD800FF3F03D17B684FF000025A647B689B6C0B
:102FE800B3F1FF3F03D17B684FF000029A64FFF70B
:102FF80081FB7B689B6B002B06D17B6803F1240364
:103008001846396800F046FC7868FFF759FF07F161
:103018000807BD4680BD00BF80B58AB002AFF86022
:10302800B9603B601346FB80FB68002B04D14FF06E
:10303800500080F31188FEE7BB6A042B04D94FF0D7
:10304800500080F31188FEE7FB881846396B00F0C2
:103058003BFEB861BB69002B00F08E80BB691A6B20
:10306800FB8803F1FF334FEA8303D3187B617B6945
:1030780023F007037B617B6903F00703002B04D06F
:103088004FF0500080F31188FEE7FB880093B86981
:10309800B968BA6A7B6B00F021FD7869F9683A680B
:1030A800FFF7A2FA03461A46BB691A60BB691B6898
:1030B80003F00703002B04D04FF0500080F3118871
:1030C800FEE7FB6A002B02D0FB6ABA691A60FFF7B9
:1030D800FFFA354B1B6803F10102334B1A60334B7F
:1030E8001B68002B09D1314BBA691A602E4B1B683B
:1030F800012B0FD100F02EFD0CE02D4B1B68002B8F
:1031080008D12A4B1B68DA6ABB6A9A4202D8274B55
:10311800BA691A60BB69DA6A264B1B689A4203D9F6
:10312800BB69DA6A234B1A60234B1B6803F101025F
:10313800214B1A60BB69DA6A204B1B689A4203D993
:10314800BB69DA6A1D4B1A60BB69DA6A13464FEA33
:1031580083039B184FEA83031A46194BD218BB699D
:1031680003F1040310461946FFF756FB4FF001031D
:10317800FB61FFF7BFFA02E04FF0FF33FB61FB6929
:10318800012B0BD10A4B1B68002B07D0074B1B6880
:10319800DA6ABB6A9A4201D2FFF78EFAFB691846CF
:1031A80007F12007BD4680BD24C900204CC8002077
:1031B80034C900202CC9002048C9002030C900208B
:1031C80050C8002080B584B000AF78604FF000038D
:1031D800FB607B68002B13D000F03AF90D4B1A689E
:1031E8007B68D318BB600C4B1B6803F104031846BB
:1031F800FFF774FBB86800F02FFD00F037F9F860AE
:10320800FB68002B01D1FFF757FA07F11007BD46FD
:1032180080BD00BF28C900204CC8002080B584B0FC
:1032280000AF7860FFF754FA214B1B687A689A421E
:1032380002D14FF000037B607B68002B02D11C4B4E
:103248001B6800E07B68FB60FB6803F10403184619
:10325800FFF744FBFB689B6A002B05D0FB6803F172
:1032680018031846FFF73AFBFB6803F104031148FB
:103278001946FFF7D1FAFFF73DFA7B68002B13D107
:103288000D4B1B68002B02D0FFF716FA0CE0094B18
:103298001A680A4B1B689A4204D1054B4FF000028A
:1032A8001A6001E000F030FA07F11007BD4680BD52
:1032B8004CC8002010C9002034C9002024C90020AF
:1032C80080B485B000AF78604FF00003FB607B6886
:1032D800BB607B68002B04D14FF0500080F311884D
:1032E800FEE7BB685A690B4B9A420BD1BB689A6AD6
:1032F800094B9A4206D0BB689B6A002B02D14FF05B
:103308000103FB60FB68184607F11407BD4680BC43
:10331800704700BF10C90020E4C8002080B584B001
:1033280000AF78607B68002B04D14FF0500080F329
:103338001188FEE77B68FB60FB68002B39D01F4BC8
:103348001B68FA689A4234D0FFF7C2F9F868FFF7A9
:10335800B7FF0346012B2AD1FB6803F10403184683
:10336800FFF7BCFAFB68DA6A154B1B689A4203D967
:10337800FB68DA6A124B1A60FB68DA6A13464FEA8E
:1033880083039B184FEA83031A460E4BD218FB6837
:1033980003F1040310461946FFF73EFAFB68DA6AA0
:1033A800064B1B68DB6A9A4201D3FFF785F9FFF7E2
:1033B800A1F907F11007BD4680BD00BF4CC8002029
:1033C80030C9002050C8002080B586B004AF1C4B1F
:1033D8004FF0000200924FF0000201924FF00002FD
:1033E80002924FF000020392164819464FF0C802A5
:1033F8004FF00003FFF710FE78607B68012B02D1C5
:1034080000F0CEFC78607B68012B0DD14FF05000A6
:1034180080F311880C4B4FF001021A600B4B4FF0F0
:1034280000021A60FFF72AF97B68002B04D14FF0DD
:10343800500080F31188FEE707F10807BD4680BDFC
:1034480050430008C13A000834C9002028C90020A8
:1034580080B400AF044B1B6803F10102024B1A60F1
:10346800BD4680BC704700BF38C9002090B583B006
:1034780000AF4FF000037B603D4B1B68002B04D16D
:103488004FF0500080F31188FEE7FFF721F9384B21
:103498001B6803F1FF32364B1A60354B1B68002B53
:1034A8005ED1344B1B68002B5AD04FF000033B60B1
:1034B8002EE0314BDB68DB681C4604F11803184624
:1034C800FFF70CFA04F104031846FFF707FAE26A5B
:1034D8002A4B1B689A4202D9E26A284B1A60E26AB0
:1034E80013464FEA83039B184FEA83031A46244B7B
:1034F800D21804F1040310461946FFF78DF9E26A61
:10350800204B1B68DB6A9A4202D34FF001033B60F1
:10351800194B1B68002BCCD11B4B1B68002B0FD001
:1035280007E000F047F8184B1B6803F1FF32164B11
:103538001A60154B1B68002BF3D14FF001033B6059
:103548003B68012B03D0114B1B68012B08D14FF0AE
:1035580001037B600D4B4FF000021A60FFF7ACF8D7
:10356800FFF7C8F87B68184607F10C07BD4690BD01
:1035780038C9002024C90020E4C8002030C9002030
:1035880050C800204CC800203CC9002040C9002079
:1035980080B582B000AFFFF79BF8054B1B687B60D6
:1035A800FFF7A8F87B68184607F10807BD4680BDF5
:1035B80028C9002080B584B000AF4A4B1B68002B97
:1035C80040F08580484B1B6803F10102464B1A60A6
:1035D800454B1B68002B2CD1444B1B681B68002BE8
:1035E80004D04FF0500080F31188FEE73F4B1B6872
:1035F800FB603F4B1A683D4B1A603D4BFA681A60F6
:103608003C4B1B6803F101023A4B1A60374B1B68AD
:103618001B68002B04D1384B4FF0FF321A6008E0CA
:10362800324B1B68DB68DB68BB60BB685A68324B8F
:103638001A602D4B1A68304B1B689A424DD32B4B9E
:103648001B681B68002B04D12B4B4FF0FF321A600C
:1036580043E0264B1B68DB68DB68BB60BB685B68C4
:103668007B60214B1A687B689A4203D2224B7A68A6
:103678001A6032E0BB6803F104031846FFF72EF91D
:10368800BB689B6A002B05D0BB6803F1180318467A
:10369800FFF724F9BB68DA6A184B1B689A4203D90A
:1036A800BB68DA6A154B1A60BB68DA6A13464FEAD8
:1036B80083039B184FEA83031A46114BD218BB6841
:1036C80003F1040310461946FFF7A6F8B7E70D4BB8
:1036D8001B6803F101020B4B1A6007F11007BD4686
:1036E80080BD00BF38C9002028C90020DCC80020E0
:1036F800E0C8002044C900202400002030C9002070
:1037080050C800203CC9002080B582B000AF3D4BB6
:103718001B68002B04D03C4B4FF001021A606CE090
:103728003A4B1B681A68394B1B681B6B9A420AD8BC
:10373800364B1B681A46354B1B6803F13403104699
:103748001946FDF7BFFA314B1B681B6B1846304909
:103758004FF01402FCF754FD0346002B1BD02B4BF3
:103768001B681A46294B1B6803F134031046194697
:10377800FDF7A8FA10E0274B1B68002B04D14FF087
:10378800500080F31188FEE7224B1B6803F1FF32DB
:10379800204B1A6000E000BF1E4B1A6813464FEA20
:1037A80083039B184FEA83031A461B4BD3181B68E5
:1037B800002BE0D0174B1A6813464FEA83039B1877
:1037C8004FEA83031A46144BD3187B607B685B6807
:1037D8005A687B685A607B685A687B6803F10803FB
:1037E8009A4204D17B685B685A687B685A607B6838
:1037F8005B68DB681A46054B1A6007F10807BD4687
:1038080080BD00BF38C9002040C900204CC8002036
:10381800A443000830C9002050C8002080B584B0F7
:1038280000AF786039607B68002B04D14FF05000FE
:1038380080F31188FEE7144B1B6803F118037868BE
:103848001946FFF711F8104B1B6803F104031846DB
:10385800FFF744F83B68B3F1FF3F08D10A4B1B68F8
:1038680003F1040309481946FEF7D6FF07E0084BA1
:103878001A683B68D318FB60F86800F0EDF907F1A7
:103888001007BD4680BD00BF4CC8002010C90020ED
:1038980028C9002080B584B000AF786039607B68A3
:1038A800002B04D14FF0500080F31188FEE70D4B38
:1038B8001B6803F1180378681946FEF7ADFF094B3A
:1038C8001B6803F104031846FFF708F8064B1A684B
:1038D8003B68D318FB60F86800F0BEF907F11007E1
:1038E800BD4680BD4CC8002028C9002080B584B0E2
:1038F80000AF78607B68DB68DB68BB60BB68002B67
:1039080004D14FF0500080F31188FEE7BB6803F143
:1039180018031846FEF7E2FF204B1B68002B22D144
:10392800BB6803F104031846FEF7D8FFBB68DA6AE0
:103938001B4B1B689A4203D9BB68DA6A184B1A609A
:10394800BB68DA6A13464FEA83039B184FEA83037E
:103958001A46144BD218BB6803F1040310461946E3
:10396800FEF75AFF06E0BB6803F118030E48194634
:10397800FEF752FFBB68DA6A0C4B1B68DB6A9A4297
:1039880003D34FF00103FB6002E04FF00003FB603C
:10399800FB68184607F11007BD4680BD38C90020EE
:1039A80030C9002050C80020E4C800204CC80020BE
:1039B80080B483B000AF78607B68002B04D14FF0EF
:1039C800500080F31188FEE7064B1A687B681A607E
:1039D800054B1A687B685A6007F10C07BD4680BC26
:1039E800704700BF44C9002028C9002080B584B0B2
:1039F80000AF786039607B68002B04D14FF050002D
:103A080080F31188FEE73B68002B04D14FF050008B
:103A180080F31188FEE7FEF75BFE3B681B68B3F195
:103A2800FF3F03D14FF00003FB602CE07B681A686E
:103A3800194B1B689A4209D07B685A68174B1B6858
:103A48009A4203D84FF00103FB601CE0134B1A683D
:103A58007B685B68D21A3B681B689A4210D23B6845
:103A68001A687B6859680D4B1B68CB1AD2183B68DB
:103A78001A607868FFF79CFF4FF00003FB6002E0D4
:103A88004FF00103FB60FEF735FEFB68184607F1AF
:103A98001007BD4680BD00BF44C9002028C90020CA
:103AA80080B400AF034B4FF001021A60BD4680BCE2
:103AB800704700BF40C9002080B582B000AF786071
:103AC80000F08CF8044B1B68012B01D9FEF7F4FDBC
:103AD800FDF7ECF8F4E700BF50C8002080B584B0CB
:103AE80000AFF860B9607A603B60FB6803F13403AB
:103AF8001A46BB68104619464FF00A02FCF7B4FC98
:103B0800FB684FF0000283F83D207B68042B02D944
:103B18004FF004037B60FB687A68DA62FB6803F1A4
:103B280004031846FEF76AFEFB6803F118031846FB
:103B3800FEF764FEFB68FA681A617B68C3F1050248
:103B4800FB689A61FB68FA685A6207F11007BD467C
:103B580080BD00BF80B582B000AF4FF000037B602E
:103B680010E07A6813464FEA83039B184FEA8303F1
:103B78001A46124BD3181846FEF71CFE7B6803F151
:103B880001037B607B68042BEBD90D48FEF712FE1E
:103B98000C48FEF70FFE0C48FEF70CFE0B48FEF72C
:103BA80009FE0B48FEF706FE0A4B054A1A600A4B47
:103BB800044A1A6007F10807BD4680BD50C80020B6
:103BC800B4C80020C8C80020E4C80020F8C80020F5
:103BD80010C90020DCC80020E0C8002080B582B0F1
:103BE80000AF194B1B68002B2AD0FFF731FC174B8D
:103BF8001B68002B14BF002301237B60FFF736FCF2
:103C08007B68002B1CD1FEF763FD114B5B68DB68FA
:103C18003B603B6803F104031846FEF75FFE0D4B5B
:103C28001B6803F1FF320B4B1A60074B1B6803F14B
:103C3800FF32054B1A60FEF75DFD386800F07EF82C
:103C480007F10807BD4680BD0CC90020F8C8002050
:103C580000C9002024C9002080B582B000AF786078
:103C6800144B1B687A685A60134B1B687A689A422F
:103C78000AD2124B1A680F4B1B6803F10403104653
:103C88001946FEF7F1FD11E00D4B1A68094B1B6848
:103C980003F1040310461946FEF7E6FD094B1B68BD
:103CA8007A689A4202D2074B7A681A6007F10807C5
:103CB800BD4680BD4CC8002028C90020E0C80020AF
:103CC800DCC800202400002080B584B000AF034683
:103CD8003960FB804FF04000FEF790FB0346FB6025
:103CE800FB68002B23D03B68002B07D1FB884FEAE9
:103CF80083031846FEF782FB034600E03B68FA6838
:103D08001363FB681B6B002B06D1F868FEF724FCD5
:103D18004FF00003FB600AE0FB681A6BFB884FEA70
:103D2800830310464FF0A5011A46FCF743FBFB68D6
:103D3800184607F11007BD4680BD00BF80B582B0A8
:103D480000AF78607B681B6B1846FEF705FC786847
:103D5800FEF702FC07F10807BD4680BD80B483B0BA
:103D680000AF0D4B1B68002B03D14FF000037B60A5
:103D78000AE00A4B1B68002B03D14FF001037B605C
:103D880002E04FF002037B607B68184607F10C07DE
:103D9800BD4680BC704700BF34C9002038C9002028
:103DA80080B586B004AF4FF000037B6000F086FA60
:103DB800134B1B68002B15D0124B4FF003020092D7
:103DC8004FF0000201924FF0000202924FF0000201
:103DD80003920D4819464FF0C8024FF00003FFF751
:103DE8001BF978607B68002B04D14FF0500080F3FA
:103DF8001188FEE77B68184607F10807BD4680BDB5
:103E08007CC90020584300082D3F000880B588B0C1
:103E180000AFF860B9607A603B604FF00003FB6167
:103E28001F4B1B68002B34D0BB683B617B687B61F0
:103E3800FB68BB613B68002B1FD1FFF78FFF034670
:103E4800012B0CD1164B1A6807F1100310461946BE
:103E5800BA6A4FF00003FEF7DBFDF86119E0104B7A
:103E68001A6807F11003104619464FF000024FF088
:103E78000003FEF7CDFDF8610BE0094B1A6807F166
:103E88001003104619463A684FF00003FEF76AFE21
:103E9800F861FB69184607F12007BD4680BD00BFE1
:103EA8007CC9002080B586B002AF786039601C4BB1
:103EB8001B68DB68DB68FB60FB6803F104031846DA
:103EC800FEF70CFDFB68DB69012B20D1FB689A69C2
:103ED8007B68D318F86819463A687B6800F0B8F828
:103EE8000346012B13D14FF000030093F8684FF0FD
:103EF80000017A684FF00003FFF788FFB860BB68DD
:103F0800002B04D14FF0500080F31188FEE7FB68C6
:103F18005B6AF868984707F11007BD4680BD00BF87
:103F280074C9002080B584B000AF786007F1080339
:103F3800184600F043F8F860BB68F868194600F0C6
:103F480003F800F0CDF8F1E780B584B000AF7860F1
:103F58003960FFF77DFA07F10803184600F052F8B8
:103F6800F860BB68002B1ED13B68002B0AD17A6829
:103F7800FB689A4206D8FFF779FA7868F968FFF77C
:103F880091FF14E00C4B1A687968FB68CB1A10464D
:103F98001946FFF713F8FFF769FA0346002B05D116
:103FA800FEF78AFB03E0FFF761FA00E000BF07F1C4
:103FB8001007BD4680BD00BF7CC9002080B485B015
:103FC80000AF78600E4B1B681B68002B14BF0022E3
:103FD80001227B681A607B681B68002B05D1084B9F
:103FE8001B68DB681B68FB6002E04FF00003FB60A6
:103FF800FB68184607F11407BD4680BC704700BF30
:1040080074C9002080B584B000AF7860FFF7C0FAAB
:10401800F8600E4B1B68FA689A4209D20B4B1B6872
:10402800184600F0E9F87B684FF001021A6003E0D7
:104038007B684FF000021A60044BFA681A60FB684C
:10404800184607F11007BD4680BD00BF80C9002093
:1040580080B586B000AFF860B9607A603B604FF019
:1040680000037B61FB68BA685A60FB68FA681A61EA
:10407800BA687B689A4214D87A683B68D21AFB6897
:104088009B699A4203D34FF001037B611EE0124BF8
:104098001A68FB6803F1040310461946FEF7E4FBAF
:1040A80014E07A683B689A4207D2BA683B689A4239
:1040B80003D34FF001037B6108E0084B1A68FB68E3
:1040C80003F1040310461946FEF7CEFB7B69184638
:1040D80007F11807BD4680BD78C9002074C90020C3
:1040E80080B58AB002AF07F104031846FFF78AFFCC
:1040F800F8616CE03B69BB61BB69002B09D0BB6907
:104108005B69002B05D0BB6903F104031846FEF771
:10411800E5FBBB68032B53D801A252F823F000BF7C
:1041280039410008C941000893410008C14100080D
:10413800FA68BB699B69D218FB68B8691146FA69C5
:10414800FFF786FF0346012B3CD1BB695B6AB86960
:104158009847BB69DB69012B36D1FA68BB699B6953
:10416800D3184FF000020092B8694FF000011A46C8
:104178004FF00003FFF74AFE78617B69002B25D1D9
:104188004FF0500080F31188FEE7FA68BB699A6126
:10419800BB699B69002B04D14FF0500080F3118854
:1041A800FEE7BB699A69FB69D318B8691946FA69C9
:1041B800FB69FFF74DFF0AE0B869FEF7CDF906E0A5
:1041C80000BF04E000BF02E000BF00E000BF094BF1
:1041D8001A6807F10803104619464FF000024FF01D
:1041E8000003FEF729FD0346002B83D107F12007C2
:1041F800BD4680BD7CC9002080B58AB002AF78601A
:1042080044E02C4B1B68DB681B68FB61294B1B686F
:10421800DB68DB68BB61BB6903F104031846FEF782
:104228005DFBBB695B6AB8699847BB69DB69012BB1
:104238002CD1BB699A69FB69D3187B617A69FB69E0
:104248009A420FD9BB697A695A60BB69BA691A611F
:10425800184B1A68BB6903F1040310461946FEF7A8
:1042680003FB13E04FF000030093B8694FF000011F
:10427800FA694FF00003FFF7C9FD38613B69002B6D
:1042880004D14FF0500080F31188FEE7094B1B68FA
:104298001B68002BB5D1074B1B68FB60064B1A68DF
:1042A800044B1A60044BFA681A6007F12007BD46F0
:1042B80080BD00BF74C9002078C9002080B500AF58
:1042C800FEF706FA0D4B1B68002B14D10C48FEF7BD
:1042D80071FA0C48FEF76EFA0B4B094A1A600B4B41
:1042E800084A1A604FF006004FF00C01FEF720FB59
:1042F8000246024B1A60FEF7FDF980BD7CC900201A
:104308004CC9002060C9002074C9002078C9002069
:104318004C454433000000004C4544340000000084
:104328004C454435000000004C4544360000000070
:1043380053574954434800004D454D530000000071
:1043480042414C414E43450049444C450000000061
:10435800546D722053766300010000007D00000058
:1043680000000000FA0000000200000077010000D1
:1043780003000000F401000000100020004000804D
:104388000100000001000000010000000000000022
:10439800000000000600000010000000A5A5A5A56B
:1043A800A5A5A5A5A5A5A5A5A5A5A5A5A5A5A5A5B5
:1043B800F8B500BFF8BC08BC9E467047F8B500BF0A
:0843C800F8BC08BC9E467047DA
:0443D0009D01000843
:0443D4008901000853
:1043D800007A030A000C0240000C0240000C024064
:1043E800000C0240000002400010000000C800005D
:0843F800AAAAAAAAFFFFFFFF19
:0400000508000CD90A
:00000001FF
