:020000040800F2
:1000000000000220E50700083F080008410800083A
:1000100043080008450800084708000800000000E1
:10002000000000000000000000000000D9100008DF
:1000300049080008000000008D110008C9110008DF
:100040003D0800083D0800083D0800083D0800087C
:100050003D0800083D0800084D0800083D0800085C
:100060003D0800083D0800083D0800083D0800085C
:100070003D0800083D0800083D0800083D0800084C
:100080003D0800083D0800083D0800083D0800083C
:100090003D0800083D0800083D0800083D0800082C
:1000A0003D0800083D0800083D0800083D0800081C
:1000B0003D0800083D0800083D0800083D0800080C
:1000C0003D0800083D0800083D0800083D080008FC
:1000D0003D0800083D0800083D0800083D080008EC
:1000E0003D0800083D0800083D0800083D080008DC
:1000F0003D0800083D0800083D0800083D080008CC
:100100003D0800083D0800083D0800083D080008BB
:100110003D0800083D0800083D0800083D080008AB
:100120003D0800083D0800083D0800083D0800089B
:100130003D0800083D0800083D0800083D0800088B
:100140003D0800083D0800083D0800083D0800087B
:100150003D0800083D0800083D0800083D0800086B
:100160003D0800083D0800083D0800083D0800085B
:100170003D0800083D0800083D0800083D0800084B
:080180003D0800083D080008DD
:1001880040F22803C2F200031A780AB90120187055
:10019800704700BF40F22400C2F2000008B50368AF
:1001A8002BB140F20003C0F2000303B1984708BD29
:1001B80070B542F2782642F27825C0F60006C0F6FD
:1001C8000005761BB61006D0002455F8043B013410
:1001D8009847A642F9D142F27C2642F27825C0F629
:1001E8000006C0F60005761B02F036F8B61006D0F9
:1001F800002455F8043B01349847A642F9D170BD54
:10020800032A70B404460D4626D941EA000313F0C8
:10021800030F13D020782B78984208BF294606D0C0
:100228001EE014F8010F11F8013F984218D1012A75
:1002380002F1FF32F5D1002070BC70470B4604462E
:1002480051F8045B50F8046BAE4204D1043A0446FA
:10025800032A0B46F2D81D461046002ADAD1EBE7EE
:10026800C01AE9E7032A2DE9F00109D82AB10023C9
:10027800CC5CC45401339342FAD1BDE8F001704715
:100288000B468218014603E02478013301F8014B3C
:1002980011F0030F1C46F7D113F003055DD06E4231
:1002A800C5F1040CED009B594FEACC0C08E004346E
:1002B800A7593B4607FA0CF748EA070741F8047BB9
:1002C800571A23FA05F8032FF1DC03E014F8013B71
:1002D80001F8013B8A42F9D8CFE753F8404C41F87E
:1002E800404C53F83C4C41F83C4C53F8384C41F8DE
:1002F800384C53F8344C41F8344C53F8304C41F8EE
:10030800304C53F82C4C41F82C4C53F8284C41F8FD
:10031800284C53F8244C41F8244C53F8204C41F80D
:10032800204C53F81C4C41F81C4C53F8184C41F81D
:10033800184C53F8144C41F8144C53F8104C41F82D
:10034800104C53F80C4C41F80C4C53F8084C41F83D
:10035800084C53F8044C41F8044C561A1D460C46F8
:10036800403340313F2EB8DC2B460FE053F8101CC9
:1003780044F8101C53F80C1C44F80C1C53F8081CC7
:1003880044F8081C53F8041C44F8041C161B2146A6
:100398001D46103410330F2EE8DC2B4602E024688B
:1003A80041F8044B551A1C46032D03F10403F6DCEF
:1003B80090E700BF032AC9B270B408D82AB103462F
:1003C800121803F8011B9342FBD170BC70478218C6
:1003D800044601E004F8011B14F0030FFAD14FF0B2
:1003E800013303FB01F31FE044F8403C44F83C3C74
:1003F80044F8383C44F8343C44F8303C44F82C3C4D
:1004080044F8283C44F8243C44F8203C44F81C3C7C
:1004180044F8183C44F8143C44F8103C44F80C3CAC
:1004280044F8083C44F8043C161B254640343F2E4B
:10043800DADC2C4607E044F8103C44F80C3C44F85D
:10044800083C44F8043C161B254610340F2EF2DCF9
:1004580001E045F8043B541B032CFADC01E005F8E5
:10046800011B9542FBD3B0E741EA000313F0030FE9
:100478000B4670B414BF00240124032A94BF00243F
:1004880004F001040546D4B9BAB10E782B46013AF6
:1004980003F8016B56B1AC1C7AB111F8015F234621
:1004A800013A04F8015C0134002DF5D12AB19A18FB
:1004B800002103F8011B9342FBD170BC7047194619
:1004C80053F8044BA4F1013626EA040616F0803FDF
:1004D800DAD1043A45F8044B032A1946EFD8D3E792
:1004E80013B504460121202000F098FB4FF47073E7
:1004F8000093032200238DF806308DF805208DF82F
:1005080007303CB9013311488DF80430694600F0D2
:100518002BFB1AE002240D488DF80440694600F0D0
:1005280023FB0A480621224600F061FB0748072101
:10053800224600F05CFB05480821224600F057FBE4
:1005480002480921224600F052FB1CBD001402405B
:1005580010B5042088B0012100F06CFB2C4B2D480D
:100568001A684FF47A63B2FBF3F30024013B40F2BC
:100578006C7205A90692ADF81430ADF81C40ADF8C0
:10058800164000F089FB0121224800F0CBFB6023D4
:10059800ADF800300123ADF8023069464FF47A73A4
:1005A8001C480293ADF80C4000F0D6FB22462146C9
:1005B800184800F0EFFC0821164800F0C7FC69460F
:1005C800144800F00BFC22460421124800F0E2FC1B
:1005D8000821104800F0C3FC69460E4800F042FCB0
:1005E800224608210B4800F0D5FC0821094800F0F4
:1005F800BFFC6946074800F077FC0C2105482246F5
:1006080000F0C8FC0348082100F0BBFC08B010BD8E
:10061800000000200008004010B500214FF00060E5
:1006280000F046FA4FF4407000F004FA0020FFF79B
:1006380057FF0020012100F0A9F9BDE81040FFF79D
:1006480087BF000070B51D4B002118680A460B468D
:1006580000F066FF012806462DD1194B194C1D687C
:1006680085F001051D609DB92946174800F067FB14
:100678002846FFF735FF206801F032F9606801F07D
:100688002FF9A06801F02CF9E06801F029F912E0CF
:10069800206801F017FB606801F014FBA06801F006
:1006A80011FBE06801F00EFB3046FFF719FF064822
:1006B800314600F044FB00F045FDC4E7300000205F
:1006C8002C00002088C900200008004010B504460E
:1006D8002068C0B200F04AF9606801F083FAF7E7D1
:1006E80030B5062185B0012000F02AFE294B2A4C9E
:1006F80018600021012000F023FE206020B10021B5
:100708000A460B4600F04DFE00210A460B46234DD3
:10071800206800F005FF0024FFF77EFFC82220496B
:10072800204B2148019500940294039400F0D4FFD3
:100738002B1D0193C8221D491D4B1B480094029490
:10074800039400F0C9FF05F108030193C822194971
:10075800194B15480094029403940C3500F0BCFF23
:10076800C8221649164B1048009401950294039428
:1007780000F0B2FF134914480094C822234601949C
:100788000294039400F0A8FF01F0E0F8204605B0B9
:1007980030BD00BF98C900203000002088C9002063
:1007A800EC21000808220008D5060008F1210008FD
:1007B80010220008F621000818220008FB21000872
:1007C80020220008002200084D06000807B500F0A6
:1007D80069FC0190019B0EBDFEE70000002103E0CB
:1007E8000E4B5B58435004310D480E4B42189A4249
:1007F800F6D30D4A02E0002342F8043B0B4B9A4221
:10080800F9D30B48016841F47001016000F038F831
:10081800FFF7CEFCFFF764FF704700008022000856
:10082800000000202400002028000020A4C9002087
:1008380088ED00E0FEE77047FEE7FEE7FEE7FEE72B
:100848007047000070B50C4C00250120256000F0B1
:1008580077F978B1094B2946186822462B4600F0EB
:1008680022FE012000F07AF923681BB1BDE8704030
:1008780000F068BC70BD00BFA0C900203000002097
:10088800344B1A6842F001021A6000229A60196813
:1008980021F0847121F4803119602F495960196859
:1008A80082B021F480211960DA60019200921A68FE
:1008B80042F480321A60274B1A6802F40032009220
:1008C800019A01320192009A1AB9019AB2F5A06F01
:1008D800F1D11B6813F4003318BF01230093009B68
:1008E800012B30D11B4B1A6C42F080521A641B4A00
:1008F800116841F4804111609A689A609A6842F4DC
:1009080000429A609A6842F4A0529A60144A5A6067
:100918001A6842F080721A600E4B1A6812F0007F53
:10092800FAD0104A40F2056111609A6822F0030279
:100938009A609A6842F002029A60064B9B6803F03C
:100948000C03082BF9D1084B4FF000629A6002B0F3
:10095800704700BF0038024010300024007000408B
:1009680019544007003C024000ED00E0054B0649E1
:1009780053F8203031F810105A6981EA02025A619E
:10098800704700BF040000202E22000870B5224BDB
:1009980086B004460D4653F82000012100F03EF9C8
:1009A80001214FF4804000F051F91C4B06A933F89F
:1009B800143041F80C3D1A4B002653F824008DF8EA
:1009C80010608DF8136000F0CFF8012D21D1154B80
:1009D800185D154B195D00F045F9144B8DF808604A
:1009E80033F814308DF80A50019301A808238DF8C4
:1009F800093000F067F80E4B8DF817501B5D05A8FD
:100A08008DF814300F238DF815308DF8163000F05E
:100A18001BF806B070BD00BF282200082C22000871
:100A28001400002036220008372200083A22000865
:100A38003822000840F0BE60024B40F42020D86005
:100A4800704700BF00ED00E0C37810B5FBB1164B4E
:100A58004278DB688478DB4303F4E0631B0AC3F164
:100A68000401C9B212FA01F10F221A41C9B2224097
:100A78000A430E4B0178CB18120183F80023037840
:100A88000122590903F01F0312FA03F307E0037860
:100A98000122590903F01F0312FA03F32031034A14
:100AA80042F8213010BD00BF00ED00E000E100E099
:100AB80021F0604121F07F01014B014399607047AB
:100AC80000ED00E08379016810B5002B2BD01B4B9B
:100AD8001C68CA4302EA04041C605C6822405A602D
:100AE8000279D218146844EA0101116002689C680E
:100AF800D14301EA04049C60DC682140D960417953
:100B0800102907D1996811439960D96841EA02020E
:100B1800DA6010BD01F1804303F59E33196841EA9C
:100B280002021A6010BD037903F1804303F59E3376
:100B38001A6822EA0101196010BD00BF003C01409B
:100B4800054B1A685B69034004D010420CBF0020B3
:100B58000120704718467047003C0140014B58611E
:100B6800704700BF003C01402DE9F04100230F68A9
:100B78001A460124944004EA0705A54231D103240A
:100B880006689C40E44304EA060606600E79D0F83D
:100B980000C006FA03F8013EF6B248EA0C0C012E32
:100BA800C0F800C015D8866891F805C004EA0606A2
:100BB800866086680CFA03FC4CEA0606866046687E
:100BC80026EA050545608D7946689540ADB23543FE
:100BD8004560C5682C40C460CC79C5689C402C43EE
:100BE800C46001320233102AC3D1BDE8F08101F09C
:100BF8000703C908083130B59B0050F821500F246D
:100C08009C4025EA040440F8214050F8214012FA9B
:100C180003F343EA040440F8214030BD044B11B10A
:100C28001A6B104302E01A6B22EA0000186370473F
:100C380000380240044B11B11A6C104302E01A6CE0
:100C480022EA00001864704700380240044B11B1D2
:100C58005A6C104302E05A6C22EA0000586470474C
:100C68000038024001F0030289080A4B023130B50E
:100C7800920053F821500F24944025EA040443F8C5
:100C8800214053F8214010FA02F242EA040443F8E2
:100C9800214030BD003801401B4A038890420ED0E5
:100CA8001A4A90420BD0B0F1804F08D0184A9042AF
:100CB80005D0184A904202D0174A904206D14FF602
:100CC8008F7203EA02024B8842EA0303134A9042F6
:100CD80009D0134A904206D04FF6FF4203EA0202B7
:100CE8000B8942EA030303804B68C3620B880385C0
:100CF800054B984202D0054B984201D18B7A038666
:100D080001238382704700BF0000014000040140B6
:100D18000004004000080040000C004000100040A3
:100D28000014004021B103889BB243F0800304E023
:100D3800038823F080031B041B0C0380704721B138
:100D480003889BB243F0010304E0038823F0010306
:100D58001B041B0C03807047038C23F001031B0446
:100D68001B0C038470B5038C8488028B0D884E8815
:100D780022F073021204120C2A438D8923F0020315
:100D88001B0446EA05051B0CADB245EA0303114DE9
:100D9800A84202D0104DA84215D14FF6F77503EAC4
:100DA8000505CB894E8A1D434FF6FB7305EA0303FD
:100DB8008D882B434FF6FF4504EA05050C8A46EA61
:100DC8000404A4B22C43848002838A6842630384A7
:100DD80070BD00BF0000014000040140038C23F0F7
:100DE80010031B041B0C0384038C30B58488028B0E
:100DF8000D8822F4E6421204120C23F020031B048F
:100E080042EA05228D891B0C43EA05134D8843EA03
:100E18000513124DA84202D0114DA84217D14FF622
:100E28007F7503EA0505CB8945EA03154FF6BF73BD
:100E380005EA03038D8843EA05134FF2FF3504EAF8
:100E480005050C8A45EA84054C8A45EA84048480B1
:100E580002838A688263038430BD00BF00000140BA
:100E680000040140038C23F480731B041B0C0384CF
:100E7800038C30B58488828B0D8822F073021204AB
:100E8800120C23F400731B042A438D891B0C43EABC
:100E980005234D8843EA0523114DA84202D0114D80
:100EA800A84217D14FF2FF7503EA0505CB8945EA39
:100EB80003254FF6FF3305EA03038D8843EA05232C
:100EC8004CF6FF7504EA05050C8A45EA04154C8AB8
:100ED80045EA0414848082838A68C263038430BD2F
:100EE8000000014000040140038C23F480531B04DC
:100EF8001B0C0384038C30B58488828B0D8822F404
:100F0800E6421204120C23F400531B0442EA0522A1
:100F18008D891B0C43EA05334D8843EA0533094D97
:100F2800A84202D0084DA84206D14BF6FF7504EA44
:100F380005050C8A45EA8414848082838A680264E1
:100F4800038430BD0000014000040140038B23F0FE
:100F580008031B041B0C41EA030303837047038B3C
:100F680023F400631B041B0C43EA0123038370472B
:100F7800838B23F008031B041B0C41EA03038383C0
:100F88007047838B23F400631B041B0C43EA012383
:100F98008383704710B5048C01238B40A4B224EAE4
:100FA80003030384038C12FA01F141EA0303038467
:100FB80010BD000070B5054600F0FAFC2448016831
:100FC80061B9244B244A13605160244A4FF44844C1
:100FD8005C601A60012354601160036035B11035FC
:100FE80015F0070F1CBF25F0070508356A1E4CF2DF
:100FF800FE739A4227D8184A136801E01A46034636
:101008005968A94202D218680028F7D113488342C8
:1010180019D014681868491B1034202910600CD99D
:101028005A1951605D6055680B4900E0014608682F
:101038004668AE42FAD310600A60094A5B681168D4
:10104800CB1A136000E0002400F034FD204670BD88
:1010580048C800203800002038C8002040C80020B8
:101068001800002070B50446B0B1A0F1100500F0DA
:101078009FFC6968094B00E013461A68506888426B
:10108800FAD344F8102C1D60054B1A6851181960E2
:10109800BDE8704000F00EBD70BD00BF38C800202C
:1010A80018000020014B1868704700BF1800002086
:1010B800031F10B54FF0807440F8044C43F8041C2B
:1010C800002143F8081C43F81C2CA3F13C0010BD78
:1010D800064B19680868B0E8F00F80F309884FF0EC
:1010E800000080F311884EF00D0E704704C90020EF
:1010F80003480068006880F3088862B600DF00BF14
:1011080008ED00E00B4B1A6842F4700210B51A6043
:101118001A6842F070421A60074B084A1A600722A0
:1011280043F8042C064B00241C60FFF7E1FF20461F
:1011380010BD00BF20ED00E014E000E03F90020089
:101148001C000020024B4FF080521A60704700BF0D
:1011580004ED00E04FF0500080F31188024B1A684C
:1011680001321A60704700BF1C000020044A13684F
:10117800013B13601BB94FF0000080F311887047E2
:101188001C000020EFF309800C4B1A6820E9F00FCF
:1011980010602DE908404FF0500080F3118800F0EE
:1011A8003DFD4FF0000080F31188BDE80840196844
:1011B8000868B0E8F00F80F30988704704C9002078
:1011C80008B5074B4FF080521A604FF0500080F37B
:1011D800118800F001FC4FF0000080F3118808BD71
:1011E80004ED00E000F108034FF0FF328260436035
:1011F800C3600361002303607047002303617047E5
:1012080043685A688B604A605A68916059600368FD
:10121800416001330861036070470A68B2F1FF3F1B
:1012280010B501D1036907E000F1080300E05B682D
:101238005C6824689442FAD95A68086191604A60E7
:1012480059608B6003680133036010BD436882688E
:101258009A608268536003695968814208BF5A607E
:10126800002202611A68013A1A60704710B50446F4
:10127800FFF770FF0BE0636A63B104F1240000F02C
:10128800A3FD08B100F022FEA36C013BA364A36C8C
:10129800002BF0DC4FF0FF33A364FFF767FFFFF785
:1012A80059FF0BE0236963B104F1100000F08CFDD5
:1012B80008B100F00BFE636C013B6364636C002BA8
:1012C800F0DC4FF0FF336364BDE81040FFF74EBF1A
:1012D80030B5046803466CB1C568026CAD18C560CA
:1012E8004068854228BFDC600846D968BDE83040C0
:1012F800FEF7B8BF30BD1346026C10B50446DAB12C
:1013080063B98068FEF7AEFFA268236CD3186268E1
:10131800A360934210D32368A3600DE0C068FEF772
:10132800A1FF236CE26821685B42D2188A42E2601E
:1013380002D26268D318E360A36B0133A36310BDC4
:10134800F8B50E46054638B34C20FFF733FE044681
:1013580010B305FB06F7781CFFF72CFE2060C0B120
:101368000023A3636B1EC719A06006FB03004FF0A0
:10137800FF33E0606364A36404F110006760E56311
:101388002664FFF72FFF04F12400FFF72BFF204608
:10139800F8BD2046FFF766FE4FF0500080F3118835
:1013A800FEE72DE9FF410C4601921E46054620B98D
:1013B8004FF0500080F31188FEE719B1002707E0CD
:1013C800274605E0036C002BFAD067E0FEE701270B
:1013D800FFF7C0FEAA6BEB6B9A4212D22846214651
:1013E8003246FFF788FF6B6A3BB105F1240000F035
:1013F800EBFC012801D1FFF7A5FEFFF7B7FE01209E
:1014080049E0DDF80480B8F1000F03D1FFF7AEFE24
:10141800404640E017B902A800F00EFDFFF7A6FE0F
:1014280000F0C6FAFFF796FE6B6CB3F1FF3F01D1EF
:1014380001336B64AB6CB3F1FF3F01D10133AB6493
:10144800FFF794FE02A801A900F008FDE8B9FFF72C
:1014580081FED5F83880EF6BFFF788FEB8450ED1CE
:1014680005F11000019900F06BFC2846FFF7FEFE1D
:1014780000F020FB0028AAD1FFF764FEA7E7284662
:10148800FFF7F4FE00F016FBA1E72846FFF7EEFE93
:1014980000F010FB002004B0BDE8F0814FF05000D0
:1014A80080F3118892E738B51446054620B94FF005
:1014B800500080F31188FEE722B94FF0500080F306
:1014C8001188FEE709B9026C2ABB4FF0500080F37F
:1014D8001188A86BEA6B904202D3002315E0FEE75F
:1014E8001A462846FFF707FFAB6CB3F1FF3F09D157
:1014F8006B6A4BB105F1240000F066FC012320B1B2
:10150800236002E00133AB6401234FF0000080F355
:101518001188184638BD4FF0500080F31188DEE777
:101528002DE9FF410C4601921F46054620B94FF0B0
:10153800500080F31188FEE719B1002607E026461F
:1015480005E0036C002BFAD06FE0FEE70126FFF7F9
:1015580001FEAB6BFBB128462146EE68FFF7B8FEEB
:101568005FB9AB6B013BAB632B6983B105F110002D
:1015780000F02AFC01280AD107E06B6AEE6033B15B
:1015880005F1240000F020FC08B1FFF7DBFDFFF7B0
:10159800EDFD012046E0DDF80480B8F1000F03D12D
:1015A800FFF7E4FD40463DE016B902A800F044FC10
:1015B800FFF7DCFD00F0FCF9FFF7CCFD6B6CB3F135
:1015C800FF3F01D101336B64AB6CB3F1FF3F01D135
:1015D8000133AB64FFF7CAFD02A801A900F03EFC85
:1015E800D0B9FFF7B7FDAE6BFFF7C0FD76B905F1CF
:1015F8002400019900F0A4FB2846FFF737FE00F00D
:1016080059FA0028A2D1FFF79DFD9FE72846FFF76A
:101618002DFE00F04FFA99E72846FFF727FE00F065
:1016280049FA002004B0BDE8F0814FF0500080F383
:1016380011888AE770B504460D46FFF78BFD636C89
:10164800B3F1FF3F01D101336364A36CB3F1FF3FF2
:1016580001D10133A364FFF789FDA36B23B904F11A
:101668002400294600F094FB2046BDE87040FFF7AF
:10167800FDBD00000E4B1A6810B550600D4A126887
:101688009042044607D20C4A106819680431BDE834
:101698001040FFF7C2BD094A106819680431FFF706
:1016A800BCFD074B1A68944238BF1C6010BD00BFD0
:1016B80004C900201CC9002020C9002064C80020DB
:1016C8002000002010B50446006BFFF7CBFC204635
:1016D800BDE81040FFF7C6BC2DE9F84F0A9FDDF8BA
:1016E8002CA0DDF830B00D4614469946804620B946
:1016F8004FF0500080F31188FEE7042F04D94FF013
:10170800500080F31188FEE74020FFF753FC06469F
:10171800002800F0A280BBF1000F03D1A000FFF762
:1017280049FC8346C6F830B0BBF1000F03D1304600
:10173800FFF798FC91E0A200A5215846FEF73AFE73
:10174800336B29460A22013C06F1340003EB84047A
:10175800351DFEF789FE002386F83D302846F762DE
:10176800FFF74BFD06F11800FFF747FD24F00704CB
:10177800C7F105033661B3617662204641464A46A1
:10178800FFF796FC10F0070F306004D04FF05000C0
:1017980080F31188FEE7BAF1000F01D0CAF80060A3
:1017A800FFF7D8FC324B334C1A68DFF8F09001325F
:1017B8001A60226842BB26601B68012B2CD1904618
:1017C800142000FB089008F10108FFF70BFDB8F1A1
:1017D800050FF5D1DFF8C8A0DFF8C8805046FFF73D
:1017E80001FD4046FFF7FEFC2348FFF7FBFC2348BA
:1017F800FFF7F8FC2248FFF7F5FC224BC3F800A0DE
:10180800214BC3F8008007E0204B1B6823B92368ED
:10181800DB6ABB4298BF26601D4AF36A11688B4297
:1018280088BF13601B4A1168013111601A4A116898
:101838008B4288BF1360142000FB03902946FFF7F2
:10184800DFFCFFF793FC114B1B6853B12368DB6A7D
:10185800BB4209D2FFF776FC03E04FF0FF30BDE84A
:10186800F88F0120BDE8F88F0120BDE8F88F00BF90
:1018780044C9002004C9002008C9002070C80020FD
:1018880050C8002064C8002020C9002068C8002073
:1018980048C9002028C9002024C9002098C8002071
:1018A8002CC9002084C8002020B94FF0500080F3D4
:1018B8001188FEE74269084B9A4208D1806A074BB3
:1018C800984206D0D0F1010038BF002070470020B0
:1018D80070470020704700BF50C8002008C900208A
:1018E80070B5044620B94FF0500080F31188FEE728
:1018F800134D2B68984222D0FFF72CFC2046FFF7A7
:10190800D3FF012817D1261D3046FFF79FFC0D4A4B
:10191800E36A11688B4288BF13600B4A142000FBEE
:1019280003203146FFF76CFC2B68E26ADB6A9A42B7
:1019380001D3FFF707FCBDE87040FFF717BC70BD87
:1019480004C9002024C9002098C800201FB500241D
:10195800C822234612481349009401940294039420
:10196800FFF7BAFE0128034611D100F009FB012850
:1019780003460CD14FF0500080F311880A4A1360D7
:101988000A4B1C6004B0BDE81040FFF7BBBB23B98D
:101998004FF0500080F31188FEE704B010BD00BF7F
:1019A8008D1B00085022000868C800201CC90020B0
:1019B800024B1A6801321A60704700BFFCC8002049
:1019C80010B5FFF7C7FB034B1C68FFF7CFFB20469A
:1019D80010BD00BF1CC90020F8B52D4B1B68002B9B
:1019E80050D12C4D2B6801332B602B68EBB92A4B57
:1019F8001A68126822B14FF0500080F31188FEE790
:101A0800264A1968106818601160254A1168013162
:101A180011601A681168234A11B94FF0FF3303E0C7
:101A28001B68DB68DB685B6813601E4C2A682368E8
:101A38009A422BD3184B1A68126812B94FF0FF3329
:101A480006E01B68DB68DE682A6873689A4201D280
:101A58002360F8BD371D3846FFF7F8FBB36A1BB1A2
:101A680006F11800FFF7F2FB0F4AF36A11688B4280
:101A780088BF13600D4A142000FB03203946FFF786
:101A8800BFFBD7E70A4B1A6801321A60F8BD00BFDE
:101A9800FCC800201CC9002064C8002020C9002000
:101AA80000C900202000002024C9002098C8002078
:101AB8004CC8002070B52B4C236823B94FF0500058
:101AC80080F31188FEE7FFF745FB2368013B23609D
:101AD8002568002D40D1244B1C68F4B93DE0DB6833
:101AE800DC68261D04F11800FFF7B0FB3046FFF74D
:101AF800ADFB1E4AE36A11688B4288BF13601C4A1B
:101B0800142000FB03203146FFF77AFB194BE26AE9
:101B18001B68DB6A9A4228BF0125174B1A68002AFE
:101B2800DDD1164E34682CB909E0FFF755FF23685C
:101B3800013B23603368114C002BF6D105E0012DE1
:101B480003D00F4B1B68012B07D10D4B00221A60E5
:101B5800FFF7F8FA012400E00024FFF707FB20460E
:101B680070BD00BFFCC8002044C9002024C9002063
:101B780098C8002004C9002008C900204CC80020CB
:101B880040C9002070B5134C2368CBB1124DFFF744
:101B98000FFF2E68FFF78EFF96B1FFF7DBFAEB68B1
:101BA800DD68281DFFF752FB0C4B1A68013A1A60D2
:101BB8002368013B2360FFF7D9FA2846FFF782FD27
:101BC800074B1B68012B01D9FFF7BCFAFEF7FEFD96
:101BD800D9E700BF6CC8002070C8002044C90020A5
:101BE80098C8002070B5044670B1FFF7E1FE094BB4
:101BF8001D68094B18680430FFF728FB6019FFF7C8
:101C080039FDFFF757FF18B9BDE87040FFF79ABADA
:101C180070BD00BF1CC9002004C9002038B5234B83
:101C28001B681BB1224B01221A6038BD214C226867
:101C3800236812681B6B9A4204D8206821683431E3
:101C4800FEF7CAFD23681C49186B1A4D1422FEF7CB
:101C5800D7FA78B1286829683431FEF7BDFD09E064
:101C68001A6822B94FF0500080F31188FEE71A680D
:101C7800013A1A60114B124A1968142569435158E0
:101C88000029EDD018684543531908355968496843
:101C98005519A942596004BF49685960142303FBC8
:101CA80000225368DB68236038BD00BFFCC80020F1
:101CB80040C9002004C900203C22000824C9002093
:101CC80098C800202DE9F041194D0446FFF742FA63
:101CD8002B689C4200D014B92E68002400E02646E8
:101CE800371D3846FFF7B2FAB36A1BB106F1180080
:101CF800FFF7ACFA0F4E39463046FFF781FAFFF787
:101D080035FA002C12D10C4B1B681BB1BDE8F04111
:101D1800FFF718BA094B32681B689A4202D12C6047
:101D2800BDE8F081BDE8F041FFF778BFBDE8F0817C
:101D380004C9002050C8002068C8002044C90020F9
:101D480070B50D4620B94FF0500080F31188FEE7BA
:101D58000C4C21681831FFF760FA20680430FFF74F
:101D680075FAB5F1FF3F06D1216807480431BDE88F
:101D78007040FFF745BA054B18682818BDE8704051
:101D8800FFF778BC04C9002050C800201CC90020F7
:101D980070B50D4620B94FF0500080F31188FEE76A
:101DA800074C21681831FFF72BFA20680430FFF739
:101DB8004DFA044B18682818BDE87040FFF75ABC64
:101DC80004C900201CC9002038B5C368DC6824B9E0
:101DD8004FF0500080F31188FEE704F118052846FB
:101DE800FFF734FA0F4B1B6873B9251D2846FFF718
:101DF8002DFA0D4AE36A11688B4288BF13600B4ABB
:101E0800142000FB032000E009482946FFF7F8F9F1
:101E1800084BE06A1B68DB6A984234BF0020012047
:101E280038BD00BFFCC8002024C9002098C8002085
:101E380008C9002004C9002020B94FF0500080F3E1
:101E48001188FEE7034B1B680360034B1B68436064
:101E5800704700BF00C900201CC9002038B50C46D7
:101E6800054620B94FF0500080F31188FEE721B9EC
:101E78004FF0500080F31188FEE7FFF76BF92368F5
:101E8800B3F1FF3F16D00F4A11682A6891420E4AF3
:101E980003D01068696888420ED211686A68891A86
:101EA800994209D208490968521AD318236028466A
:101EB800FFF7C2FF002400E00124FFF757F920468E
:101EC80038BD00BF00C900201CC90020014B0122F9
:101ED8001A60704740C90020044B186828B1044BA9
:101EE8001868002814BF02200120704768C8002025
:101EF800FCC8002070B50D4CFFF72CF9236883B996
:101F08000B4E0C4D3046FFF76DF92846FFF76AF97E
:101F1800094B1E60094B06201D600C21FFF710FAC3
:101F28002060BDE87040FFF721B900BF78C90020E4
:101F380050C9002064C900204CC900207CC9002079
:101F4800914210B504464160006105D88169D21AF2
:101F58008A420CD2084B04E09A4201D2994208D234
:101F6800064B1868211DFFF758F9002010BD012005
:101F780010BD012010BD00BF7CC900204CC9002045
:101F88001FB5FFF7B7FF0B4B1B685BB1032300932B
:101F980009480A49033BC822019302930393FFF7B8
:101FA8009BFB20B94FF0500080F31188FEE705B085
:101FB80000BD00BF78C90020B120000855220008E4
:101FC8007FB50E4E054630681C46A0B101910292BD
:101FD80003955BB9FFF780FF012801A930680CBFA2
:101FE800089A22462346FFF7DCF904E01A4601A9BD
:101FF8000023FFF758FA04B070BD00BF78C900206D
:102008002DE9F347254E0546FFF7DAFC3368984279
:1020180004463CD22DE0DA681768DB68D3F80C80F8
:1020280008F1040A5046FFF711F9D8F82430404661
:102038009847D8F81C30012B1BD1D8F81830FB185A
:10204800BB4209D9C8F80430C8F81080D9F8000094
:102058005146FFF7E2F80CE0002140463A460B46AD
:102068000091FFF7ADFF20B94FF0500080F31188C1
:10207800FEE7DFF83090D9F800301A68002ACAD194
:10208800074A11681360C9F80010012300E0002313
:102098002B6020463460BDE8FC8700BF80C9002063
:1020A8007CC900204CC90020F0B587B04B4C236890
:1020B8001E68D6F1010638BF002616B9DB681D6810
:1020C80000E00025FFF774FC05A8FFF799FF059BC2
:1020D8000746002B33D1002E26D1854224D8FFF79E
:1020E800E9FC2368DB68DC68201DFFF7AFF8E369CB
:1020F800012B15D1A169204669183A462B46FFF7EE
:102108001FFF01280CD1204631462A463346009647
:10211800FFF756FF20B94FF0500080F31188FEE713
:10212800636A204698470CE02D4BE91B1868FFF7B7
:1021380081FAFFF7BFFC20B9FFF704F801E0FFF7C9
:10214800B9FC05A8FFF75CFF06463DE0049C24B1F6
:10215800636913B1201DFFF779F8029D022D21D084
:10216800032D2ED0002D2FD1039BA169204659188D
:102178003246FFF7E5FE012826D1636A20469847D4
:10218800E369012B20D1A269039B0095D218204650
:1021980029462B46FFF714FFB0B94FF0500080F3E3
:1021A8001188FEE70399A16121B94FF0500080F32F
:1021B8001188FEE72046711832463346FFF7C0FE05
:1021C80002E02046FEF74EFF054B0022186802A9E0
:1021D8001346FFF7A5F90028B8D167E74CC90020D6
:1021E80078C900204C454433004C454434004C45E4
:1021F8004435004C45443600535749544348000081
:1022080000000000E803000001000000881300003F
:10221800020000001027000003000000204E00000C
:1022280001000000010080004000000100020000E1
:1022380006000100A5A5A5A5A5A5A5A5A5A5A5A5D3
:10224800A5A5A5A5A5A5A5A549444C4500546D720D
:102258002053766300000000F8B500BFF8BC08BC46
:102268009E467047F8B500BFF8BC08BC9E4670474C
:042278009D010008BC
:04227C0089010008CC
:10228000007A030A001402400014024000140240C5
:10229000001402400000024000C80000AAAAAAAA36
:0422A000FFFFFFFF3E
:04000005080007E503
:00000001FF
