:020000040800F2
:100000000000022089090008010B00080D0B000800
:10001000150B00081D0B0008250B00080000000050
:100020000000000000000000000000009D440008E7
:100030002D0B00080000000075450008B1450008C0
:10004000E1090008E1090008E1090008E1090008E8
:10005000E1090008E1090008390B0008E10900087E
:10006000E1090008E1090008E1090008E1090008C8
:10007000E1090008E1090008E1090008E1090008B8
:10008000E1090008E1090008E1090008E1090008A8
:10009000E1090008E1090008E1090008E109000898
:1000A000E1090008E1090008E1090008E109000888
:1000B000E1090008E1090008E1090008E109000878
:1000C000E1090008E1090008E1090008E109000868
:1000D000E1090008E1090008E1090008E109000858
:1000E000E1090008E1090008E1090008E109000848
:1000F000E1090008E1090008E1090008E109000838
:10010000E1090008E1090008E1090008E109000827
:10011000E1090008E1090008E1090008E109000817
:10012000E1090008E1090008E1090008E109000807
:10013000E1090008E1090008E1090008E1090008F7
:10014000E1090008E1090008E1090008E1090008E7
:10015000E1090008E1090008E1090008E1090008D7
:10016000E1090008E1090008E1090008E1090008C7
:10017000E1090008E1090008E1090008E1090008B7
:08018000E1090008E109000893
:1001880040F22803C2F200031A780AB90120187055
:10019800704700BF40F22400C2F2000008B50368AF
:1001A8002BB140F20003C0F2000303B1984708BD29
:1001B80070B546F6080646F60805C0F60006C0F60D
:1001C8000005761BB61006D0002455F8043B013410
:1001D8009847A642F9D146F60C0646F60805C0F639
:1001E8000006C0F60005761B06F0FEFAB61006D02B
:1001F800002455F8043B01349847A642F9D170BD54
:10020800032A70B404460D4626D941EA000313F0C8
:10021800030F13D020782B78984208BF294606D0C0
:100228001EE014F8010F11F8013F984218D1012A75
:1002380002F1FF32F5D1002070BC70470B4604462E
:1002480051F8045B50F8046BAE4204D1043A0446FA
:10025800032A0B46F2D81D461046002ADAD1EBE7EE
:10026800C01AE9E7032A2DE9F00109D82AB10023C9
:10027800CC5CC45401339342FAD1BDE8F001704715
:100288000B468218014603E02478013301F8014B3C
:1002980011F0030F1C46F7D113F003055DD06E4231
:1002A800C5F1040CED009B594FEACC0C08E004346E
:1002B800A7593B4607FA0CF748EA070741F8047BB9
:1002C800571A23FA05F8032FF1DC03E014F8013B71
:1002D80001F8013B8A42F9D8CFE753F8404C41F87E
:1002E800404C53F83C4C41F83C4C53F8384C41F8DE
:1002F800384C53F8344C41F8344C53F8304C41F8EE
:10030800304C53F82C4C41F82C4C53F8284C41F8FD
:10031800284C53F8244C41F8244C53F8204C41F80D
:10032800204C53F81C4C41F81C4C53F8184C41F81D
:10033800184C53F8144C41F8144C53F8104C41F82D
:10034800104C53F80C4C41F80C4C53F8084C41F83D
:10035800084C53F8044C41F8044C561A1D460C46F8
:10036800403340313F2EB8DC2B460FE053F8101CC9
:1003780044F8101C53F80C1C44F80C1C53F8081CC7
:1003880044F8081C53F8041C44F8041C161B2146A6
:100398001D46103410330F2EE8DC2B4602E024688B
:1003A80041F8044B551A1C46032D03F10403F6DCEF
:1003B80090E700BF032AC9B270B408D82AB103462F
:1003C800121803F8011B9342FBD170BC70478218C6
:1003D800044601E004F8011B14F0030FFAD14FF0B2
:1003E800013303FB01F31FE044F8403C44F83C3C74
:1003F80044F8383C44F8343C44F8303C44F82C3C4D
:1004080044F8283C44F8243C44F8203C44F81C3C7C
:1004180044F8183C44F8143C44F8103C44F80C3CAC
:1004280044F8083C44F8043C161B254640343F2E4B
:10043800DADC2C4607E044F8103C44F80C3C44F85D
:10044800083C44F8043C161B254610340F2EF2DCF9
:1004580001E045F8043B541B032CFADC01E005F8E5
:10046800011B9542FBD3B0E741EA000313F0030FE9
:100478000B4670B414BF00240124032A94BF00243F
:1004880004F001040546D4B9BAB10E782B46013AF6
:1004980003F8016B56B1AC1C7AB111F8015F234621
:1004A800013A04F8015C0134002DF5D12AB19A18FB
:1004B800002103F8011B9342FBD170BC7047194619
:1004C80053F8044BA4F1013626EA040616F0803FDF
:1004D800DAD1043A45F8044B032A1946EFD8D3E792
:1004E80080B500AF4FF000604FF0000100F072FCE3
:1004F8004FF4407000F0F0FB4FF0000000F00AF8F5
:100508004FF000004FF0010100F086FA00F054F8B7
:1005180080BD00BF80B584B000AF0346FB714FF0CB
:1005280020004FF0010100F0EDFE4FF47073BB6046
:100538004FF00003BB734FF003037B734FF00003CE
:10054800FB73FB79002B09D14FF001033B7307F1D3
:1005580008031848194600F0DBFD27E04FF47073D4
:10056800BB604FF002033B7307F1080311481946BB
:1005780000F0CEFD0F484FF006014FF0020200F0E8
:100588006BFE0C484FF007014FF0020200F064FECA
:1005980008484FF008014FF0020200F05DFE0548E0
:1005A8004FF009014FF0020200F056FE07F1100764
:1005B800BD4680BD0014024080B58AB000AF4FF040
:1005C8000003FB844FF004004FF0010100F0DEFE51
:1005D8003C4B1A683C4BA3FB02134FEA13239BB214
:1005E80003F1FF33FB8440F26C73BB60FB8CBB8070
:1005F8004FF00003BB814FF00003FB8007F10403B9
:100608003248194600F054FF30484FF0010100F01D
:10061800BDFF4FF060033B824FF001037B824FF434
:100628007A73BB614FF00003BB8307F110032748BF
:10063800194600F0EBFF25484FF000014FF000028B
:1006480001F084FA21484FF0080101F003FA07F19C
:1006580010031E48194601F05DF81C484FF00401CC
:100668004FF0000201F072FA18484FF0080101F04B
:100678000FFA07F110031548194601F0E3F813487B
:100688004FF008014FF0000201F060FA0F484FF0F8
:10069800080101F01DFA07F110030C48194601F092
:1006A80067F90A484FF00C014FF0000201F04EFACA
:1006B80006484FF0080101F029FA07F12807BD465E
:1006C80080BD00BF14000020D34D62100008004018
:1006D80080B584B004AF4FF001004FF0060104F07C
:1006E8004DF80246504B1A604FF001004FF00001E0
:1006F80004F044F802464D4B1A604C4B1B68002B23
:100708000AD04A4B1B6818464FF000014FF0000210
:100718004FF0000304F0A2F8444B1B6818464FF052
:1007280000014FF000024FF0000304F0ABF9FFF7AF
:10073800D7FE01F0BFFB4FF4784003F0A9FB4FF45C
:10074800784300934FF000004FF00001384A4FF60D
:10075800FF7303F0EDFC374B4FF000020092364A6E
:1007680001924FF0000202924FF0000203923348C8
:1007780019464FF0C802324B04F074FB314A324B31
:100788004FF000010091314901914FF000010291B1
:100798004FF000010391294811464FF0C80204F0B8
:1007A80061FB2B4A2B4B4FF0000100912A49019124
:1007B8004FF0000102914FF0000103911F481146CC
:1007C8004FF0C80204F04EFB244A254B4FF00001BD
:1007D8000091244901914FF0000102914FF000016E
:1007E8000391164811464FF0C80204F03BFB1E4B1C
:1007F8004FF0000200924FF0000201924FF0000209
:1008080002924FF000020392184819464FF0C802AE
:100818004FF0000304F026FB04F0FCFC4FF000034B
:100828001846BD4680BD00BF98C900202C00002096
:10083800646100087061000888C900207908000810
:10084800A861000878610008B06100088CC9002020
:1008580080610008B861000890C90020886100081C
:10086800C061000894C9002090610008A108000830
:1008780080B584B000AF78607B68FB60FB681B685C
:10088800DBB2184600F0AAF8FB6803F104031B6802
:10089800184604F0BDFBF1E780B582B000AF786080
:1008A8002A4B1B6818464FF000014FF000024FF02A
:1008B800000304F0E7F80346012B44D1244B1B68DE
:1008C80083F00102224B1A60214B1B68002B1DD1BB
:1008D80020484FF0000100F079FE4FF00000FFF7CC
:1008E80019FE1D4B1B68184604F03EFC1A4B5B684A
:1008F800184604F039FC184B9B68184604F034FC81
:10090800154BDB68184604F02FFC1CE0124B1B68E3
:10091800184604F0A9FB104B5B68184604F0A4FBCA
:100928000D4B9B68184604F09FFB0B4BDB68184681
:1009380004F09AFB4FF00100FFF7ECFD05484FF07B
:10094800010100F043FE03F0DDFDA9E72C000020C3
:10095800300000200008004088C9002080B582B01F
:1009680000AF03F05DFD03467B607B6807F1080775
:10097800BD4680BD80B483B000AF78603960FEE7C3
:10098800002103E00E4B5B58435004310D480E4BD9
:1009980042189A42F6D30D4A02E0002342F8043B7B
:1009A8000B4B9A42F9D30B48016841F4700101607E
:1009B80000F0E4F8FFF7FCFBFFF78AFE7047000041
:1009C80010680008000000202400002028000020F3
:1009D800A8C9002088ED00E0FEE7000080B483B0DD
:1009E80000AF0346FB71FA79094B53F82230F979C5
:1009F800074A52F821205169F879064A32F810203E
:100A080081EA02025A6107F10C07BD4680BC7047B3
:100A180000000020C861000880B588B000AF024619
:100A28000B46FA71BB71FA792C4B53F822301846F1
:100A38004FF0010100F066FC4FF480404FF00101D7
:100A480000F0C6FC4FF000033B774FF00003FB7744
:100A5800FA79234B33F81230BB61FA79214B53F8FA
:100A6800222007F118031046194600F051FBBB7904
:100A7800012B2ED1FB791C4AD25CFB791B49CB5C3C
:100A88001046194600F0C6FCFA79194B33F81230B3
:100A98003B614FF000033B754FF008037B754FF047
:100AA8000103BB7507F11003184600F0A9F9FB799B
:100AB800104AD35C3B734FF00F037B734FF00F0367
:100AC800BB734FF00103FB7307F10C03184600F0EA
:100AD80015F907F12007BD4680BD00BFD4610008A5
:100AE800D061000810000020DC610008E061000807
:100AF800D8610008E461000880B400AFBD4680BC3E
:100B0800704700BF80B400AFFEE700BF80B400AFFD
:100B1800FEE700BF80B400AFFEE700BF80B400AFBF
:100B2800FEE700BF80B400AFBD4680BC704700BF81
:100B380080B500AF0F4B4FF000021A604FF0010074
:100B480000F0DCF90346002B13D00B4B1B6818464A
:100B58004FF00001074A4FF0000303F029FF4FF060
:100B6800010000F0F5F9034B1B68002B01D003F0DE
:100B7800C9FC80BDA0C900202C00002080B500AFB2
:100B8800124B124A126842F001021A600F4B4FF0E2
:100B980000029A600D4A0D4B1B6823F0847323F4FE
:100BA80080331360094B0A4A5A60084B074A126897
:100BB80022F480221A60054B4FF00002DA6000F040
:100BC8000BF8044B4FF000629A6080BD0038024079
:100BD8001030002400ED00E080B483B000AF4FF087
:100BE80000037B604FF000033B60374B364A1268C6
:100BF80042F480321A60344B1B6803F400333B60C4
:100C08007B6803F101037B603B68002B03D17B68A1
:100C1800B3F5A06FEFD12C4B1B6803F40033002B06
:100C280003D04FF001033B6002E04FF000033B604C
:100C38003B68012B42D1244B234A126C42F080526C
:100C48001A64224B214A126822F480421A601E4B11
:100C58001D4A92689A601C4B1B4A926842F40042F3
:100C68009A60194B184A926842F4A0529A60164B3F
:100C7800174A5A60144B144A126842F080721A607C
:100C880000BF114B1B6803F00073002BF9D0114B08
:100C980040F203621A600C4B0B4A926822F003027E
:100CA8009A60094B084A926842F002029A6000BFB3
:100CB800054B9B6803F00C03082BF9D107F10C07CF
:100CC800BD4680BC704700BF00380240007000403D
:100CD800193C4005003C024080B483B000AF786006
:100CE800054A7B6843F0BE6343F42023D36007F1D1
:100CF8000C07BD4680BC704700ED00E080B485B0AD
:100D080000AF78604FF00003FB734FF00003BB7334
:100D18004FF00F037B737B68DB78002B3ED02B4BA7
:100D2800DB686FEA030303F4E0634FEA1323FB7302
:100D3800FB7BC3F10403BB737A7BFB7B42FA03F3AF
:100D48007B737B685B781A46BB7B02FA03F3FB7301
:100D58007B689A787B7B02EA0303DAB2FB7B42EA80
:100D68000303FB73FB7B4FEA0313FB73184A7B688F
:100D78001B78D318FA7B83F80023154B7A6812780E
:100D88004FEA5212D2B27968097801F01F014FF088
:100D9800010000FA01F143F8221011E00C4B7A68C7
:100DA80012784FEA5212D2B27968097801F01F011D
:100DB8004FF0010000FA01F102F1200243F822107D
:100DC80007F11407BD4680BC704700BF00ED00E086
:100DD80000E100E080B483B000AF78603960074A72
:100DE8003B6823F0604323F07F0379680B439360EB
:100DF80007F10C07BD4680BC704700BF00ED00E05E
:100E080080B485B000AF78604FF00003FB603A4BC8
:100E1800FB607B689B79002B59D0374B364A1168A9
:100E28007A6812686FEA020201EA02021A60324B1B
:100E3800314A51687A6812686FEA020201EA0202CE
:100E48005A607B681B79FA68D318FB60FB68FA68FC
:100E580011687A68126841EA02021A60264B264A2B
:100E680091687A6812686FEA020201EA02029A60DF
:100E7800214B214AD1687A6812686FEA020201EAB6
:100E88000202DA607B685B79102B10D11A4B1A4A80
:100E980091687A68126841EA02029A60164B164A0B
:100EA800D1687A68126841EA0202DA601EE0124BE1
:100EB800FB607B685B79FA68D318FB60FB68FA68AB
:100EC80011687A68126841EA02021A600EE07B68CB
:100ED8001B79FA68D318FB60FB68FA6811687A68AE
:100EE80012686FEA020201EA02021A6007F11407A7
:100EF800BD4680BC704700BF003C014080B485B04F
:100F080000AF78604FF00003FB734FF00003BB6045
:100F18000E4B1A687B6802EA0303BB600B4B5A69E5
:100F28007B6802EA0303002B06D0BB68002B03D0C2
:100F38004FF00103FB7302E04FF00003FB73FB7BF0
:100F4800184607F11407BD4680BC7047003C0140B5
:100F580080B483B000AF7860034B7A685A6107F1B8
:100F68000C07BD4680BC7047003C014080B483B08C
:100F780000AF78604FF020437A6812687968486853
:100F88007968896808437968C9680843796809698C
:100F98000843796849690843796889690843796821
:100FA800C96908437968096A08437968496A08433E
:100FB8007968896A08437968C96A08437968096B56
:100FC80040EA010143F822107B689B68082B0DD189
:100FD8004FF020437A6812684FF020417868006823
:100FE80051F8201041F0400143F822104FF02043FF
:100FF8007A68126802F101027968496B08687968B1
:10100800496B49684FEA011108437968496B896857
:101018004FEA012108437968496BC9684FEA0141E1
:1010280008437968496B09694FEA015108437968AF
:10103800496B49694FEA016108437968496B8969D5
:1010480040EA010143F822107B68DB6AB3F5804F60
:1010580025D1194B7A6812687968896B08687968AC
:10106800896B49684FEA011108437968896B896877
:101078004FEA012108437968896B09694FEA0151F0
:1010880008437968896B49694FEA016108437968BF
:10109800896B896940EA010143F8221006E0064B92
:1010A8007A6812686FF0704143F8221007F10C0754
:1010B800BD4680BC704700BF040100A080B483B067
:1010C80000AF78600B46FB70FB78002B0CD04FF01C
:1010D80020434FF02042796852F8212042F0010164
:1010E8007A6843F822100CE04FF020424FF020437A
:1010F800796853F82110054B01EA0303796842F82F
:10110800213007F10C07BD4680BC7047FEFF0F0079
:1011180080B487B000AF786039604FF000037B611E
:101128004FF000033B614FF00003FB604FF00003FA
:101138007B6187E07B694FF0010202FA03F33B61B0
:101148003B681A683B6902EA0303FB60FA683B697B
:101158009A4273D17B681A687B694FEA43034FF060
:10116800030101FA03F36FEA03031A407B681A606C
:101178007B681A683B681B7919467B694FEA430309
:1011880001FA03F31A437B681A603B681B79012B49
:1011980003D03B681B79022B34D17B689A687B6942
:1011A8004FEA43034FF0030101FA03F36FEA030325
:1011B8001A407B689A607B689A683B685B79194635
:1011C8007B694FEA430301FA03F31A437B689A6089
:1011D8007B685A687B699BB24FF0010101FA03F3FF
:1011E8006FEA03031A407B685A607B685A683B6859
:1011F8009B7919467B699BB201FA03F39BB21A43A8
:101208007B685A607B68DA687B699BB24FEA430364
:101218004FF0030101FA03F36FEA03031A407B68F6
:10122800DA607B68DA683B68DB7919467B694FEAE4
:10123800430301FA03F31A437B68DA607B6903F11D
:1012480001037B617B690F2B7FF674AF07F11C07E5
:10125800BD4680BC704700BF80B485B000AF7860E1
:1012680013460A467A807B704FF00003FB604FF00C
:101278000003BB607A787B8803F007034FEA830397
:1012880002FA03F3FB607B884FEAD3039BB21A464A
:101298007B884FEAD3039BB219467B6801F10801AA
:1012A80053F821107B8803F007034FEA83034FF0BC
:1012B8000F0000FA03F36FEA030319407B6802F199
:1012C800080243F822107B884FEAD3039BB21A46E0
:1012D8007B6802F1080253F82220FB6842EA030304
:1012E800BB607B884FEAD3039BB21A467B6802F146
:1012F8000802B96843F8221007F11407BD4680BCFC
:10130800704700BF80B483B000AF78600B46FB70B5
:10131800FB78002B07D00B4B0A4A116B7A6841EA1D
:1013280002021A6308E0074B064A116B7A686FEAF3
:10133800020201EA02021A6307F10C07BD4680BCEB
:10134800704700BF0038024080B483B000AF7860B7
:101358000B46FB70FB78002B07D00B4B0A4A916BAE
:101368007A6841EA02029A6308E0074B064A916BE1
:101378007A686FEA020201EA02029A6307F10C072F
:10138800BD4680BC704700BF0038024080B483B0BF
:1013980000AF78600B46FB70FB78002B07D00B4B37
:1013A8000A4A116C7A6841EA02021A6408E0074B9B
:1013B800064A116C7A686FEA020201EA02021A64AC
:1013C80007F10C07BD4680BC704700BF00380240DB
:1013D80080B483B000AF78600B46FB70FB78002BBD
:1013E80007D00B4B0A4A516C7A6841EA02025A64E8
:1013F80008E0074B064A516C7A686FEA020201EA74
:1014080002025A6407F10C07BD4680BC704700BF52
:101418000038024090B484B000AF02460B46FA711F
:10142800BB714FF00003FB60BB7903F003034FEA85
:1014380083034FF00F0202FA03F3FB601B4BBA79E8
:101448004FEA9202D2B21949B8794FEA9000C0B275
:1014580000F1020051F82000F9686FEA010100EA82
:10146800010102F1020243F82210104BBA794FEA47
:101478009202D2B20D49B8794FEA9000C0B200F199
:10148800020051F82000FC79B97901F003014FEA14
:10149800810104FA01F140EA010102F1020243F874
:1014A800221007F11007BD4690BC70470038014074
:1014B80080B485B000AF786039604FF00003FB81DD
:1014C8007B681B88FB817A68294B9A4213D07A681B
:1014D800284B9A420FD07B68B3F1804F0BD07A68C3
:1014E800254B9A4207D07A68244B9A4203D07A68EF
:1014F800234B9A4209D1FB8923F07003FB813B6897
:101508005A88FB8942EA0303FB817A681D4B9A4299
:101518000DD07A681C4B9A4209D0FB8923F440739A
:10152800FB813B681A89FB8942EA0303FB817B68DC
:10153800FA891A803B685A687B68DA623B681A88BD
:101548007B681A857A680A4B9A4203D07A68094BF5
:101558009A4204D13B689B7A1A467B681A867B6854
:101568004FF001029A8207F11407BD4680BC70470C
:101578000000014000040140000400400008004051
:10158800000C0040001000400014004080B483B0FC
:1015980000AF78600B46FB70FB78002B08D07B68A7
:1015A8001B889BB243F080039AB27B681A8007E0DD
:1015B8007B681B889BB223F080039AB27B681A80F1
:1015C80007F10C07BD4680BC704700BF80B483B0EC
:1015D80000AF78600B46FB70FB78002B08D07B6867
:1015E8001B889BB243F001039AB27B681A8007E01C
:1015F8007B681B889BB223F001039AB27B681A8030
:1016080007F10C07BD4680BC704700BF80B485B0A9
:1016180000AF786039604FF000037B814FF0000322
:10162800FB814FF00003BB817B681B8C9BB223F0CE
:1016380001039AB27B681A847B681B8CFB817B68E8
:101648009B88BB817B681B8B7B817B8923F0700324
:101658007B817B8923F003037B813B681A887B8924
:1016680042EA03037B81FB8923F00203FB813B6889
:101678009A89FB8942EA0303FB813B685A88FB8904
:1016880042EA0303FB817A68204B9A4203D07A68C6
:101698001F4B9A4227D1FB8923F00803FB813B6843
:1016A800DA89FB8942EA0303FB81FB8923F00403FF
:1016B800FB813B689A88FB8942EA0303FB81BB896B
:1016C80023F48073BB81BB8923F40073BB813B681F
:1016D8001A8ABB8942EA0303BB813B685A8ABB89E1
:1016E80042EA0303BB817B68BA899A807B687A895E
:1016F8001A833B689A687B685A637B68FA891A84FC
:1017080007F11407BD4680BC704700BF00000140C8
:101718000004014080B485B000AF786039604FF0B4
:1017280000037B814FF00003FB814FF00003BB8176
:101738007B681B8C9BB223F010039AB27B681A84D7
:101748007B681B8CFB817B689B88BB817B681B8BC0
:101758007B817B8923F4E0437B817B8923F440737D
:101768007B813B681B884FEA03239AB27B8942EA54
:1017780003037B81FB8923F02003FB813B689B8962
:101788004FEA03139AB2FB8942EA0303FB813B68E1
:101798005B884FEA03139AB2FB8942EA0303FB8191
:1017A8007A68264B9A4203D07A68254B9A4233D1FD
:1017B800FB8923F08003FB813B68DB894FEA031335
:1017C8009AB2FB8942EA0303FB81FB8923F04003B9
:1017D800FB813B689B884FEA03139AB2FB8942EA74
:1017E8000303FB81BB8923F48063BB81BB8923F49A
:1017F8000063BB813B681B8A4FEA83039AB2BB89AB
:1018080042EA0303BB813B685B8A4FEA83039AB2CF
:10181800BB8942EA0303BB817B68BA899A807B68EB
:101828007A891A833B689A687B689A637B68FA8925
:101838001A8407F11407BD4680BC704700000140B8
:101848000004014080B485B000AF786039604FF083
:1018580000037B814FF00003FB814FF00003BB8145
:101868007B681B8C9BB223F480739AB27B681A84C2
:101878007B681B8CFB817B689B88BB817B689B8B0F
:101888007B817B8923F070037B817B8923F00303B1
:101898007B813B681A887B8942EA03037B81FB8949
:1018A80023F40073FB813B689B894FEA03239AB2B8
:1018B800FB8942EA0303FB813B685B884FEA032309
:1018C8009AB2FB8942EA0303FB817A68264B9A4263
:1018D80003D07A68254B9A4233D1FB8923F40063FD
:1018E800FB813B68DB894FEA03239AB2FB8942EA12
:1018F8000303FB81FB8923F48063FB813B689B889E
:101908004FEA03239AB2FB8942EA0303FB81BB89AE
:1019180023F48053BB81BB8923F40053BB813B680C
:101928001B8A4FEA03139AB2BB8942EA0303BB81BD
:101938003B685B8A4FEA03139AB2BB8942EA030306
:10194800BB817B68BA899A807B687A899A833B686D
:101958009A687B68DA637B68FA891A8407F1140746
:10196800BD4680BC704700BF000001400004014034
:1019780080B485B000AF786039604FF00003BB8158
:101988004FF000037B814FF00003FB817B681B8CC9
:101998009BB223F480539AB27B681A847B681B8CB1
:1019A8007B817B689B88FB817B689B8BBB81BB8928
:1019B80023F4E043BB81BB8923F44073BB813B68BC
:1019C8001B884FEA03239AB2BB8942EA0303BB810F
:1019D8007B8923F400537B813B689B894FEA03335F
:1019E8009AB27B8942EA03037B813B685B884FEAB2
:1019F80003339AB27B8942EA03037B817A68134BEB
:101A08009A4203D07A68124B9A420CD1FB8923F48C
:101A18008043FB813B681B8A4FEA83139AB2FB8998
:101A280042EA0303FB817B68FA899A807B68BA895A
:101A38009A833B689A687B681A647B687A891A84F7
:101A480007F11407BD4680BC704700BF0000014085
:101A58000004014080B485B000AF78600B467B80FD
:101A68004FF00003FB817B681B8BFB81FB8923F014
:101A78000803FB81FA897B8842EA0303FB817B68C0
:101A8800FA891A8307F11407BD4680BC704700BF66
:101A980080B485B000AF78600B467B804FF00003C0
:101AA800FB817B681B8BFB81FB8923F40063FB8133
:101AB8007B884FEA03239AB2FB8942EA0303FB813E
:101AC8007B68FA891A8307F11407BD4680BC704702
:101AD80080B485B000AF78600B467B804FF0000380
:101AE800FB817B689B8BFB81FB8923F00803FB81CF
:101AF800FA897B8842EA0303FB817B68FA899A8327
:101B080007F11407BD4680BC704700BF80B485B09C
:101B180000AF78600B467B804FF00003FB817B6849
:101B28009B8BFB81FB8923F40063FB817B884FEA55
:101B380003239AB2FB8942EA0303FB817B68FA8993
:101B48009A8307F11407BD4680BC704780B485B0FE
:101B580000AF786013460A467A803B804FF0000356
:101B6800FB817B884FF0010202FA03F3FB817B685B
:101B78001B8C9AB2FB896FEA03039BB202EA030348
:101B88009AB27B681A847B681B8C9AB239887B88E6
:101B980001FA03F39BB242EA03039AB27B681A8400
:101BA80007F11407BD4680BC704700BF80B582B0FE
:101BB80000AF78600B46FB70FB78A3F120034FEA77
:101BC8000312064BD318786819464FF01002FEF737
:101BD80049FB07F10807BD4680BD00BFE861000862
:101BE80080B582B000AF4FF058004FF00101FFF709
:101BF80089FB4FF001004FF00101FFF7A5FB614899
:101C08004FF000014FF00C02FFF726FB5D484FF044
:101C180001014FF00C02FFF71FFB5A484FF0040177
:101C28004FF00C02FFF718FB56484FF005014FF034
:101C38000C02FFF711FB53484FF008014FF00C025C
:101C4800FFF70AFB4F484FF009014FF00C02FFF76E
:101C580003FB4C484FF00A014FF00C02FFF7FCFA67
:101C680048484FF00E014FF00C02FFF7F5FA4548CF
:101C78004FF00F014FF00C02FFF7EEFA4CF23373FE
:101C88003B604FF002033B714FF003037B714FF051
:101C98000003BB714FF00003FB713B4639481946FE
:101CA800FFF736FA38484FF002014FF00C02FFF701
:101CB800D3FA35484FF007014FF00C02FFF7CCFA82
:101CC80031484FF008014FF00C02FFF7C5FA2E48D3
:101CD8004FF009014FF00C02FFF7BEFA2A484FF007
:101CE8000A014FF00C02FFF7B7FA27484FF00B0133
:101CF8004FF00C02FFF7B0FA23484FF00C014FF0F9
:101D08000C02FFF7A9FA20484FF00D014FF00C0222
:101D1800FFF7A2FA1C484FF00E014FF00C02FFF734
:101D28009BFA19484FF00F014FF00C02FFF794FA95
:101D38004FF684733B603B4613481946FFF7E8F9B2
:101D480012484FF005014FF00C02FFF785FA0F48D3
:101D58004FF009014FF00C02FFF77EFA0B484FF0E5
:101D68000D014FF00C02FFF777FA42F220233B6097
:101D78003B4606481946FFF7CBF907F10807BD4669
:101D880080BD00BF000C0240001002400018024055
:101D980080B596B000AF4FF00603FB614FF000032B
:101DA8003B624FF000037B624FF01003BB624FF0C1
:101DB8000003FB624FF000037B634FF00003BB633B
:101DC8004FF00003FB634FF480533B644FF0000374
:101DD8007B644FF000033B634FF00003BB644FF09C
:101DE8000003FB643B463B654FF007033B604FF045
:101DF80000037B604FF00503BB604FF00003FB60FE
:101E08004FF000033B614FF000037B614FF000038C
:101E1800BB613B467B6507F11C031846FFF7A6F834
:101E28004FF006004FF00101FFF748F907F1580796
:101E3800BD4680BD80B582B000AF0B4B7B60FFF71D
:101E4800CFFE00BF7B68002B0CBF00230123DBB251
:101E58007A6802F1FF327A60002BF3D1FFF798FF1E
:101E680007F10807BD4680BDFFFF1F0080B485B09D
:101E780000AF0346FB804FF00003FB8110E04FF0FA
:101E88000003BB8103E0BB8903F10103BB81BA896D
:101E980040F274439A42F6D9FB8903F10103FB81AE
:101EA800FA89FB889A42EAD307F11407BD4680BC39
:101EB800704700BF80B500AFFFF7BCFFC34B40F2CF
:101EC80023121A804FF0000002F0ACF903461A46BC
:101ED800BE4B1A80BD4B1A8849F225339A4206D068
:101EE800BA4B1A8849F228339A4240F07381B84BAA
:101EF8004FF001021A704FF0E7004FF0100102F0A6
:101F08007DF94FF000004FF0010102F077F94FF032
:101F180001004FF4807102F071F94FF002004FF4A4
:101F2800E06102F06BF94FF0030041F2300102F07A
:101F380065F94FF004004FF0000102F05FF94FF02F
:101F4800080040F2072102F059F94FF009004FF05C
:101F5800000102F053F94FF00A004FF0000102F0BF
:101F68004DF94FF00C004FF0010102F047F94FF026
:101F78000D004FF0000102F041F94FF00F004FF053
:101F8800000102F03BF94FF010004FF0000102F0A1
:101F980035F94FF011004FF0070102F02FF94FF01B
:101FA80012004FF0000102F029F94FF013004FF032
:101FB800000102F023F94FF03200FFF757FF4FF00E
:101FC800100041F2905102F019F94FF0110040F25F
:101FD800272102F013F94FF03200FFF747FF4FF0C7
:101FE80012004FF09C0102F009F94FF03200FFF7A0
:101FF8003DFF4FF013004FF4C85102F0FFF84FF0C7
:1020080029004FF0230102F0F9F84FF02B004FF0B0
:102018000E0102F0F3F84FF03200FFF727FF4FF000
:1020280020004FF0000102F0E9F84FF021004FF0D6
:10203800000102F0E3F84FF03200FFF717FF4FF00E
:1020480030004FF0070102F0D9F84FF0310040F2AC
:10205800077102F0D3F84FF032004FF0060102F09A
:10206800CDF84FF0350040F2047102F0C7F84FF098
:10207800360041F6047102F0C1F84FF037004FF016
:10208800040102F0BBF84FF038004FF0000102F0F5
:10209800B5F84FF0390040F2067102F0AFF84FF092
:1020A8003C0040F2017102F0A9F84FF03D004FF0FA
:1020B8000F0102F0A3F84FF03200FFF7D7FE4FF000
:1020C80050004FF0000102F099F84FF051004FF026
:1020D800EF0102F093F84FF052004FF0000102F0C8
:1020E8008DF84FF0530040F23F1102F087F84FF09F
:1020F80060004FF4274102F081F84FF061004FF083
:10210800010102F07BF84FF06A004FF0000102F085
:1021180075F84FF080004FF0000102F06FF84FF0B3
:1021280081004FF0000102F069F84FF082004FF093
:10213800000102F063F84FF083004FF0000102F055
:102148005DF84FF084004FF0000102F057F84FF0AF
:1021580085004FF0000102F051F84FF090004FF069
:10216800100102F04BF84FF092004FF0000102F01E
:1021780045F84FF093004FF0030102F03FF84FF09D
:1021880095004FF4887102F039F84FF097004FF03E
:10219800000102F033F84FF098004FF0000102F010
:1021A8002DF84FF0070040F2331102F027F84FF0F6
:1021B80020004FF0000102F021F84FF021004FF00D
:1021C800000102F01BF801F05ABE00BFA6C90020AA
:1021D800340000207E4B1A8849F220339A4205D0F9
:1021E8007B4B1B88B3F5134F40F0F680794B4FF0CB
:1021F80000021A704FF000004FF0000101F0FEFFDE
:102208004FF001004FF4807101F0F8FF4FF0020029
:102218004FF4E06101F0F2FF4FF0030041F21801C2
:1022280001F0ECFF4FF004004FF0000101F0E6FF71
:102238004FF0080040F2022101F0E0FF4FF00900E2
:102248004FF0000101F0DAFF4FF00A004FF00001F3
:1022580001F0D4FF4FF00C004FF0010101F0CEFF68
:102268004FF00D004FF0000101F0C8FF4FF00F00D4
:102278004FF0000101F0C2FF4FF06400FFF7F6FDD8
:102288004FF0070040F2011101F0B8FF4FF0640071
:10229800FFF7ECFD4FF010004FF4865101F0AEFF50
:1022A8004FF011004FF0070101F0A8FF4FF01200A6
:1022B8004FF4887101F0A2FF4FF013004FF4306122
:1022C80001F09CFF4FF029004FF0000101F096FF4C
:1022D8004FF02B0044F2100101F090FF4FF0500036
:1022E8004FF0000101F08AFF4FF051004FF0EF016D
:1022F80001F084FF4FF052004FF0000101F07EFF23
:102308004FF0530040F23F1101F078FF4FF06000AA
:102318004FF41C5101F072FF4FF061004FF00101C2
:1023280001F06CFF4FF06A004FF0000101F066FF0A
:102338004FF080004FF0000101F060FF4FF0810086
:102348004FF0000101F05AFF4FF082004FF00001FA
:1023580001F054FF4FF083004FF0000101F04EFFF1
:102368004FF084004FF0000101F048FF4FF0850066
:102378004FF0000101F042FF4FF090004FF01001C4
:1023880001F03CFF4FF092004FF0000101F036FFE2
:102398004FF093004FF0010101F030FF4FF095002E
:1023A8004FF4887101F02AFF4FF097004FF00001B9
:1023B80001F024FF4FF098004FF0000101F01EFFDC
:1023C8004FF0070040F2731101F018FF01F057BDFC
:1023D800A6C9002034000020A84B1A8849F23133DE
:1023E8009A4240F04F81A64B4FF003021A704FF00B
:1023F800E70041F2140101F001FF4FF001004FF432
:10240800807101F0FBFE4FF002004FF4007101F003
:10241800F5FE4FF0030041F2300101F0EFFE4FF0FE
:10242800080040F2022101F0E9FE4FF009004FF0E8
:10243800000101F0E3FE4FF00A004FF0000101F047
:10244800DDFE4FF00C004FF0000101F0D7FE4FF019
:102458000D004FF0000101F0D1FE4FF00F004FF0DA
:10246800000101F0CBFE4FF010004FF0000101F029
:10247800C5FE4FF011004FF0070101F0BFFE4FF00D
:1024880012004FF0000101F0B9FE4FF013004FF0B9
:10249800000101F0B3FE4FF0C800FFF7E7FC4FF072
:1024A800100041F2906101F0A9FE4FF0110040F2D6
:1024B800272101F0A3FE4FF03200FFF7D7FC4FF0C1
:1024C80012004FF00C0101F099FE4FF03200FFF7B7
:1024D800CDFC4FF013004FF4006101F08FFE4FF078
:1024E80029004FF0110101F089FE4FF02B004FF049
:1024F8000B0101F083FE4FF03200FFF7B7FC4FF0FD
:1025080020004FF0000101F079FE4FF021004FF05C
:10251800000101F073FE4FF030004FF0000101F0B0
:102528006DFE4FF031004FF4837101F067FE4FF0FC
:1025380032004FF0000101F061FE4FF035004FF41A
:10254800017101F05BFE4FF0360041F20A6101F0C3
:1025580055FE4FF0370040F2077101F04FFE4FF083
:1025680038004FF4837101F049FE4FF0390040F212
:10257800077101F043FE4FF03C0040F2024101F0C8
:102588003DFE4FF03D0040F60F4101F037FE4FF0A1
:1025980050004FF0000101F031FE4FF051004FF0B4
:1025A800EF0101F02BFE4FF052004FF0000101F057
:1025B80025FE4FF0530040F23F1101F01FFE4FF08F
:1025C80060004FF41C5101F019FE4FF061004FF00C
:1025D800010101F013FE4FF06A004FF0000101F015
:1025E8000DFE4FF080004FF0000101F007FE4FF0A4
:1025F80081004FF0000101F001FE4FF082004FF022
:10260800000101F0FBFD4FF083004FF0000101F0E5
:10261800F5FD4FF084004FF0000101F0EFFD4FF0A1
:1026280085004FF0000101F0E9FD4FF090004FF0F8
:10263800100101F0E3FD4FF092004FF4C06101F08A
:10264800DDFD4FF007004FF0210101F0D7FD4FF0FD
:102658003200FFF70BFC4FF007004FF0610101F06B
:10266800CDFD4FF03200FFF701FC4FF0070040F2BC
:10267800331101F0C3FD01F002BC00BFA6C9002060
:1026880034000020604B1A8849F619139A4240F02A
:10269800BF805E4B4FF00D021A704FF028004FF0CC
:1026A800060101F0ABFD4FF000004FF0010101F011
:1026B800A5FD4FF010004FF0000101F09FFD4FF015
:1026C800010047F2EF2101F099FD4FF002004FF4AD
:1026D800C06101F093FD4FF0030046F6382101F088
:1026E8008DFD4FF0110046F6740101F087FD4FF0A3
:1026F8000F004FF0000101F081FD4FF00B0045F293
:10270800083101F07BFD4FF00C004FF0030101F0A0
:1027180075FD4FF00D004FF00A0101F06FFD4FF00D
:102728000E004FF4385101F069FD4FF01E004FF0D4
:10273800BE0101F063FD4FF025004FF4004101F0A8
:102748005DFD4FF026004FF4F04101F057FD4FF0CA
:1027580027004FF0780101F051FD4FF04E004FF087
:10276800000101F04BFD4FF04F004FF0000101F068
:1027780045FD4FF0120040F6D90101F03FFD4FF042
:1027880030004FF0000101F039FD4FF031004FF4F7
:10279800827101F033FD4FF032004FF4807101F087
:1027A8002DFD4FF0330040F2053101F027FD4FF0C9
:1027B800340040F2055101F021FD4FF0350040F2A0
:1027C800053101F01BFD4FF0360040F2077101F0B2
:1027D80015FD4FF037004FF4407101F00FFD4FF039
:1027E8003A004FF4905101F009FD4FF03B004FF4CF
:1027F800006101F003FD4FF007004FF0330101F0D5
:10280800FDFC01F03CBB00BFA6C90020340000203D
:10281800C44B1A8841F205539A4206D0C14B1A8814
:1028280040F205539A4240F08181BF4B4FF00902B4
:102838001A704FF007004FF0000101F0DFFC4FF075
:102848003200FFF713FB4FF012004FF48E7101F0C6
:10285800D5FC4FF0A4004FF0010101F0CFFC4FF080
:1028680008004FF00F0101F0C9FC4FF00A004FF0CB
:10287800080101F0C3FC4FF00D004FF0080101F012
:10288800BDFC4FF0300040F2077101F0B7FC4FF08B
:1028980031004FF0070101F0B1FC4FF0320040F277
:1028A800036101F0ABFC4FF033004FF4E06101F03D
:1028B800A5FC4FF0340040F2022101F09FFC4FF0DC
:1028C80035004FF0020101F099FC4FF0360041F657
:1028D8000F7101F093FC4FF0370040F2077101F0DF
:1028E8008DFC4FF038004FF0000101F087FC4FF0ED
:1028F80039004FF0000101F081FC4FF03A0040F23E
:10290800077101F07BFC4FF03B004FF0000101F034
:1029180075FC4FF03C004FF0070101F06FFC4FF0E1
:102928003D004FF0000101F069FC4FF03200FFF765
:102938009DFA4FF007004FF0010101F05FFC4FF0E6
:1029480017004FF0010101F059FC4FF03200FFF77A
:102958008DFA4FF010004FF4BD5101F04FFC4FF0CD
:10296800110040F2172101F049FC4FF012004FF41A
:102978008F7101F043FC4FF013004FF4706101F0C8
:102988003DFC4FF02A004FF0000101F037FC4FF0FA
:1029980029004FF00A0101F031FC4FF012004FF40A
:1029A8009F7101F02BFC4FF050004FF0000101F037
:1029B80025FC4FF051004FF0EF0101F01FFC4FF0E4
:1029C80052004FF0000101F019FC4FF0530040F2A3
:1029D8003F1101F013FC4FF060004FF41C5101F05F
:1029E8000DFC4FF061004FF0010101F007FC4FF0C2
:1029F8006A004FF0000101F001FC4FF080004FF039
:102A0800000101F0FBFB4FF081004FF0000101F0E5
:102A1800F5FB4FF082004FF0000101F0EFFB4FF0A3
:102A280083004FF0000101F0E9FB4FF084004FF004
:102A3800000101F0E3FB4FF085004FF0000101F0C9
:102A4800DDFB4FF090004FF0130101F0D7FB4FF082
:102A580092004FF4407101F0D1FB4FF093004FF01A
:102A6800050101F0CBFB4FF095004FF0000101F09C
:102A7800C5FB4FF097004FF0000101F0BFFB4FF08E
:102A880098004FF0000101F0B9FB4FF001004FF43E
:102A9800807101F0B3FB4FF002004FF4E06101F0E8
:102AA800ADFB4FF0030041F2300101F0A7FB4FF0FE
:102AB80004004FF0000101F0A1FB4FF00C004FF0B3
:102AC800000101F09BFB4FF00F004FF0000101F0F7
:102AD80095FB4FF020004FF0000101F08FFB4FF005
:102AE80021004FF0000101F089FB4FF007004FF083
:102AF800210101F083FB4FF0C800FFF7B7F94FF051
:102B080007004FF0610101F079FB4FF0C800FFF7B3
:102B1800ADF94FF0070040F2731101F06FFB01F0BF
:102B2800AEB900BFA6C9002034000020CF4B1A88D8
:102B380048F689139A4240F09D81CD4B4FF005022B
:102B48001A704FF000004FF0010101F057FB4FF0F1
:102B58003200FFF78BF94FF003004AF6A40101F0A9
:102B68004DFB4FF03200FFF781F94FF00C004FF0AA
:102B7800000101F043FB4FF03200FFF777F94FF007
:102B88000D0040F60C0101F039FB4FF03200FFF761
:102B98006DF94FF00E004FF42C5101F02FFB4FF060
:102BA8003200FFF763F94FF01E004FF0B00101F05B
:102BB80025FB4FF03200FFF759F94FF0010042F6BC
:102BC8003F3101F01BFB4FF03200FFF74FF94FF098
:102BD80002004FF4C06101F011FB4FF03200FFF723
:102BE80045F94FF010004FF0000101F007FB4FF0DE
:102BF8003200FFF73BF94FF0110046F2700101F087
:102C0800FDFA4FF03200FFF731F94FF005004FF0B1
:102C1800000101F0F3FA4FF03200FFF727F94FF007
:102C280006004FF0000101F0E9FA4FF03200FFF71B
:102C38001DF94FF016004EF61C7101F0DFFA4FF047
:102C48003200FFF713F94FF017004FF0030101F0BE
:102C5800D5FA4FF03200FFF709F94FF0070040F2BC
:102C6800331101F0CBFA4FF03200FFF7FFF84FF0C5
:102C78000B004FF0000101F0C1FA4FF03200FFF7EE
:102C8800F5F84FF00F004FF0000101F0B7FA4FF0E0
:102C98003200FFF7EBF84FF041004FF0000101F070
:102CA800ADFA4FF03200FFF7E1F84FF042004FF075
:102CB800000101F0A3FA4FF03200FFF7D7F84FF008
:102CC80048004FF0000101F099FA4FF03200FFF789
:102CD800CDF84FF0490040F23F1101F08FFA4FF064
:102CE8003200FFF7C3F84FF04A004FF0000101F03F
:102CF80085FA4FF03200FFF7B9F84FF04B004FF06C
:102D0800000101F07BFA4FF03200FFF7AFF84FF007
:102D180044004FF46F4101F071FA4FF03200FFF7B1
:102D2800A5F84FF045004FF0000101F067FA4FF0A9
:102D38003200FFF79BF84FF0460040F23F1101F0D8
:102D48005DFA4FF03200FFF791F84FF0300040F293
:102D5800077101F053FA4FF03200FFF787F84FF090
:102D680031004FF4017101F049FA4FF03200FFF7DA
:102D78007DF84FF032004FF4017101F03FFA4FF047
:102D88003200FFF773F84FF0330040F2025101F0C0
:102D980035FA4FF03200FFF769F84FF0340040F28F
:102DA800075101F02BFA4FF03200FFF75FF84FF0B0
:102DB80035004FF4017101F021FA4FF03200FFF7AE
:102DC80055F84FF036004FF4017101F017FA4FF043
:102DD8003200FFF74BF84FF0370040F2025101F094
:102DE8000DFA4FF03200FFF741F84FF03A0040F289
:102DF800023101F003FA4FF03200FFF737F84FF0D5
:102E08003B0040F2023101F0F9F94FF03200FFF7D0
:102E18002DF84FF023004FF0000101F0EFF94FF0CB
:102E28003200FFF723F84FF024004FF0000101F0C3
:102E3800E5F94FF03200FFF719F84FF025004FF48D
:102E4800004101F0DBF94FF03200FFF70FF84FF0C7
:102E58004F004FF0000101F0D1F94FF04E004FF054
:102E6800000101F0CBF901F00AB800BFA6C90020A3
:102E7800340000208A4B1A8848F699139A4240F089
:102E88001381884B4FF004021A704FF028004FF05E
:102E9800060101F0B3F94FF000004FF0010101F015
:102EA800ADF94FF003004AF6A46101F0A7F94FF01D
:102EB8000C004FF0040101F0A1F94FF00D004FF0A4
:102EC8000C0101F09BF94FF00E004FF4205101F076
:102ED80095F94FF01E004FF0B50101F08FF94FF052
:102EE800010043F63F3101F089F94FF002004FF439
:102EF800C06101F083F94FF010004FF0000101F0BC
:102F08007DF94FF0110046F6300101F077F94FF0E6
:102F180005004FF0000101F071F94FF006004FF085
:102F2800000101F06BF94FF016004EF61C7101F02C
:102F380065F94FF007004FF0330101F05FF94FF0EA
:102F48000B004FF0000101F059F94FF00F004FF05E
:102F5800000101F053F94FF041004FF0000101F07A
:102F68004DF94FF042004FF0000101F047F94FF0E2
:102F780048004FF0000101F041F94FF0490040F2DC
:102F88003F1101F03BF94FF04A004FF0000101F00A
:102F980035F94FF04B004FF0000101F02FF94FF0D9
:102FA80044004FF46F4101F029F94FF045004FF00C
:102FB800000101F023F94FF0460040F23F1101F003
:102FC8001DF94FF04E004FF0000101F017F94FF0D6
:102FD8004F004FF0000101F011F94FF0300040F2BE
:102FE800077101F00BF94FF0310040F2022101F0B6
:102FF80005F94FF032004FF4017101F0FFF84FF07E
:10300800330040F2025101F0F9F84FF0340040F279
:10301800075101F0F3F84FF035004FF4017101F05A
:10302800EDF84FF036004FF4017101F0E7F84FF07A
:10303800370040F2025101F0E1F84FF03A0040F257
:10304800023101F0DBF84FF03B0040F2023101F0B1
:10305800D5F84FF023004FF0000101F0CFF84FF002
:1030680024004FF0000101F0C9F84FF025004FF49B
:10307800004101F0C3F84FF026004FF4E04101F0A1
:10308800BDF84FF020004BF2EB0101F0B7F84FF01C
:1030980027004FF07C0101F0B1F800F0F0BE00BF4E
:1030A800A6C9002034000020EC4B1A8845F20843DA
:1030B8009A4240F0EC80EA4B4FF008021A704FF049
:1030C80001004FF4807101F099F84FF002004FF4BD
:1030D800E06101F093F84FF0030041F2300101F094
:1030E8008DF84FF004004FF0000101F087F84FF021
:1030F800080040F2072101F081F84FF009004FF075
:10310800000101F07BF84FF00A004FF0000101F0D8
:1031180075F84FF00C004FF0000101F06FF84FF018
:103128000D004FF0000101F069F84FF00F004FF06B
:10313800000101F063F84FF03200FEF797FE4FF000
:10314800070040F2011101F059F84FF03200FEF784
:103158008DFE4FF0100041F2B06101F04FF84FF0D2
:1031680011004FF0010101F049F84FF017004FF03E
:10317800010101F043F84FF012004FF49C7101F087
:103188003DF84FF013004FF4006101F037F84FF0AD
:1031980029004FF0090101F031F84FF02A004FF0F3
:1031A800090101F02BF84FF0A4004FF0000101F0E5
:1031B80025F84FF050004FF0000101F01FF84FF0D4
:1031C80051004FF0EF0101F019F84FF052004FF0A5
:1031D800000101F013F84FF0530040F23F1101F0E5
:1031E8000DF84FF060004FF41C5101F007F84FF054
:1031F80061004FF0030101F001F84FF06A004FF051
:10320800000100F0FBFF4FF080004FF0000100F0DC
:10321800F5FF4FF081004FF0000100F0EFFF4FF095
:1032280082004FF0000100F0E9FF4FF083004FF0FB
:10323800000100F0E3FF4FF084004FF0000100F0C0
:10324800DDFF4FF085004FF0000100F0D7FF4FF091
:1032580090004FF0130100F0D1FF4FF092004FF0B3
:10326800000100F0CBFF4FF093004FF0030100F096
:10327800C5FF4FF095004FF4887100F0BFFF4FF085
:10328800070040F2731100F0B9FF00F0F8BD734B6E
:103298001A8844F231539A4240F0E480704B4FF060
:1032A80007021A704FF000004FF0010100F0A6FF6E
:1032B8004FF010004FF4C56100F0A0FF4FF012006E
:1032C8004FF0060100F09AFF4FF0130040F632214C
:1032D80000F094FF4FF011004FF0400100F08EFF16
:1032E8004FF015004FF0500100F088FF4FF012002A
:1032F8004FF0160100F082FF4FF03200FEF7B6FDE6
:103308004FF0100045F2606100F078FF4FF0320096
:10331800FEF7ACFD4FF0130042F64E2100F06EFFB1
:103328004FF001004FF4807100F068FF4FF0020089
:103338004FF4407100F062FF4FF0030041F230019A
:1033480000F05CFF4FF0080040F2022100F056FF49
:103358004FF00A004FF0000100F050FF4FF030002E
:103368004FF0000100F04AFF4FF0310040F20241F7
:1033780000F044FF4FF032004FF4837100F03EFF3D
:103388004FF033004FF4E06100F038FF4FF03400A5
:103398004FF4827100F032FF4FF0350040F20131F6
:1033A80000F02CFF4FF0360040F2077100F026FFC6
:1033B8004FF0370040F2053100F020FF4FF03800A1
:1033C8004FF4027100F01AFF4FF0390040F60B710C
:1033D80000F014FF4FF03200FEF748FD4FF04100B7
:1033E8004FF0020100F00AFF4FF060004FF41C514B
:1033F80000F004FF4FF061004FF0010100F0FEFE05
:103408004FF0900040F2191100F0F8FE4FF09200D2
:103418004FF4857100F0F2FE4FF093004FF0040175
:1034280000F0ECFE4FF0A0004FF4807100F0E6FED3
:103438004FF03200FEF71AFD4FF0070040F233114B
:1034480000F0DCFE4FF03200FEF710FD4FF0A00058
:103458004FF0000100F0D2FE00F011BDA6C9002017
:1034680034000020784B1A8844F235539A4240F0D1
:10347800EF80764B4FF00C021A704FF015004FF0AA
:10348800300100F0BBFE4FF09A004FF0100100F041
:10349800B5FE4FF011004FF0200100F0AFFE4FF0E5
:1034A800100043F2284100F0A9FE4FF012004FF03F
:1034B800020100F0A3FE4FF0130041F2380100F0C2
:1034C8009DFE4FF02800FEF7D1FC4FF012004FF0A0
:1034D800120100F093FE4FF02800FEF7C7FC4FF0F2
:1034E800100043F2204100F089FE4FF0130043F230
:1034F800450100F083FE4FF04600FEF7B7FC4FF0A1
:1035080030004FF0000100F079FE4FF0310040F23A
:10351800024100F073FE4FF0320040F2073100F034
:103528006DFE4FF033004FF4417100F067FE4FF02D
:1035380034004FF0040100F061FE4FF0350040F216
:10354800014100F05BFE4FF0360040F2077100F0D9
:1035580055FE4FF0370040F2053100F04FFE4FF0B6
:1035680038004FF4C26100F049FE4FF039004FF4C3
:10357800C26100F043FE4FF001004FF4807100F08B
:103588003DFE4FF002004FF4407100F037FE4FF05F
:10359800030041F2300100F031FE4FF0080040F620
:1035A800080100F02BFE4FF00A004FF0080100F070
:1035B80025FE4FF060004FF41C5100F01FFE4FF045
:1035C80061004FF0010100F019FE4FF090004FF438
:1035D8009F7100F013FE4FF092004FF4807100F0DD
:1035E8000DFE4FF093004FF4807100F007FE4FF08E
:1035F800A0004FF4405100F001FE4FF0A3004FF03F
:10360800100100F0FBFD4FF007004FF0010100F042
:10361800F5FD4FF007004FF0210100F0EFFD4FF0EE
:1036280007004FF0230100F0E9FD4FF007004FF0CD
:10363800330100F0E3FD4FF0070040F2331100F0D2
:10364800DDFD00F01CBC00BFA6C90020340000202E
:10365800AA4B1B88472B40F05581A94B4FF00A0213
:103668001A704FF0EA004FF0000100F0C7FD4FF06C
:10367800EB004FF0200100F0C1FD4FF0EC004FF0DF
:103688000C0100F0BBFD4FF0ED004FF0C40100F05D
:10369800B5FD4FF0E8004FF0400100F0AFFD4FF0EE
:1036A800E9004FF0380100F0A9FD4FF0F1004FF0AC
:1036B800010100F0A3FD4FF0F2004FF0100100F0FF
:1036C8009DFD4FF027004FF0A30100F097FD4FF04C
:1036D80040004FF0010100F091FD4FF041004FF024
:1036E800000100F08BFD4FF042004FF0000100F0A8
:1036F80085FD4FF043004FF0100100F07FFD4FF0C3
:1037080044004FF00E0100F079FD4FF045004FF0F6
:10371800240100F073FD4FF046004FF0040100F063
:103728006DFD4FF047004FF0500100F067FD4FF07E
:1037380048004FF0020100F061FD4FF049004FF0E2
:10374800130100F05BFD4FF04A004FF0190100F043
:1037580055FD4FF04B004FF0190100F04FFD4FF0B1
:103768004C004FF0160100F049FD4FF050004FF0AB
:103778001B0100F043FD4FF051004FF0310100F004
:103788003DFD4FF052004FF02F0100F037FD4FF094
:1037980053004FF03F0100F031FD4FF054004FF05F
:1037A8003F0100F02BFD4FF055004FF03E0100F0B7
:1037B80025FD4FF056004FF02F0100F01FFD4FF090
:1037C80057004FF07B0100F019FD4FF058004FF003
:1037D800090100F013FD4FF059004FF0060100F009
:1037E8000DFD4FF05A004FF0060100F007FD4FF0B5
:1037F8005B004FF00C0100F001FD4FF05C004FF052
:103808001D0100F0FBFC4FF05D004FF0CC0100F013
:10381800F5FC4FF01B004FF0180100F0EFFC4FF0E3
:103828001A004FF0010100F0E9FC4FF024004FF0BE
:10383800150100F0E3FC4FF025004FF0500100F0B7
:10384800DDFC4FF023004FF08B0100F0D7FC4FF068
:1038580018004FF0360100F0D1FC4FF019004FF07E
:10386800010100F0CBFC4FF001004FF0000100F027
:10387800C5FC4FF01F004FF0880100F0BFFC4FF06F
:103888003200FEF7F3FA4FF01F004FF0800100F00E
:10389800B5FC4FF03200FEF7E9FA4FF01F004FF089
:1038A800900100F0ABFC4FF03200FEF7DFFA4FF06A
:1038B8001F004FF0D00100F0A1FC4FF03200FEF7DE
:1038C800D5FA4FF017004FF0050100F097FC4FF0C4
:1038D80036004FF0000100F091FC4FF028004FF047
:1038E800380100F08BFC4FF03200FEF7BFFA4FF0C2
:1038F80028004FF03C0100F081FCC0E2A6C900207E
:1039080034000020804B1A8847F283739A4240F0B3
:10391800FF807E4B4FF006021A704FF0FF004FF009
:10392800010100F06BFC4FF0F3004FF0080100F0CC
:1039380065FC4FF001004FF4807100F05FFC4FF020
:1039480002004FF4E06100F059FC4FF0030041F22F
:10395800300100F053FC4FF0080040F2023100F053
:103968004DFC4FF0080040F2072100F047FC4FF0F3
:1039780009004FF0000100F041FC4FF00A004FF041
:10398800000100F03BFC4FF010004FF0000100F088
:1039980035FC4FF011004FF0050100F02FFC4FF0FF
:1039A80012004FF0000100F029FC4FF013004FF017
:1039B800000100F023FC4FF03200FEF757FA4FF0F9
:1039C800100041F2B02100F019FC4FF03200FEF770
:1039D8004DFA4FF011004FF0070100F00FFC4FF0C7
:1039E8003200FEF743FA4FF012004FF08B0100F05F
:1039F80005FC4FF03200FEF739FA4FF013004FF490
:103A0800B85100F0FBFB4FF03200FEF72FFA4FF0F1
:103A180029004FF0220100F0F1FB4FF030004FF089
:103A2800000100F0EBFB4FF0310040F2077100F0AD
:103A3800E5FB4FF0320040F2055100F0DFFB4FF09C
:103A4800350040F2071100F0D9FB4FF036004FF077
:103A5800080100F0D3FB4FF037004FF0000100F0F1
:103A6800CDFB4FF0380040F2022100F0C7FB4FF0C9
:103A780039004FF4837100F0C1FB4FF03C0040F275
:103A8800022100F0BBFB4FF03D004FF4816100F0D4
:103A9800B5FB4FF03200FEF7E9F94FF050004FF058
:103AA800000100F0ABFB4FF051004FF0EF0100F0C8
:103AB800A5FB4FF052004FF0000100F09FFB4FF0C4
:103AC800530040F23F1100F099FB4FF060004FF4B3
:103AD800274100F093FB4FF061004FF0010100F027
:103AE8008DFB4FF090004FF0330100F087FB4FF053
:103AF8002B004FF00B0100F081FB4FF0070040F264
:103B0800331100F07BFBBAE1A6C900203400002085
:103B1800DD4B40F223121A804FF0670000F082FB61
:103B280003461A46D84B1A80D74B1B88472B40F0C0
:103B3800A681D64B4FF00B021A704FF042004FF09F
:103B4800080100F05BFB4FF046004FF0B40100F0B5
:103B580055FB4FF047004FF0430100F04FFB4FF08B
:103B680048004FF0130100F049FB4FF049004FF0B7
:103B7800470100F043FB4FF04A004FF0140100F0FA
:103B88003DFB4FF04B004FF0360100F037FB4FF094
:103B98004C004FF0030100F031FB4FF04D004FF0A7
:103BA800460100F02BFB4FF04E004FF0050100F0EE
:103BB80025FB4FF04F004FF0100100F01FFB4FF0B6
:103BC80050004FF0080100F019FB4FF051004FF082
:103BD8000A0100F013FB4FF002004FF0000100F063
:103BE8000DFB4FF003004FF0000100F007FB4FF012
:103BF80004004FF0000100F001FB4FF005004FF00A
:103C0800EF0100F0FBFA4FF006004FF0000100F062
:103C1800F5FA4FF007004FF0000100F0EFFA4FF00F
:103C280008004FF0010100F0E9FA4FF009004FF0E9
:103C38003F0100F0E3FA4FF00A00FEF717F94FF0E2
:103C480001004FF0060100F0D9FA4FF016004FF0CE
:103C5800C80100F0D3FA4FF023004FF0950100F0AF
:103C6800CDFA4FF024004FF0950100F0C7FA4FF05D
:103C780025004FF0FF0100F0C1FA4FF027004FF088
:103C8800020100F0BBFA4FF028004FF0020100F0EB
:103C9800B5FA4FF029004FF0020100F0AFFA4FF0EB
:103CA8002A004FF0020100F0A9FA4FF02C004FF063
:103CB800020100F0A3FA4FF02D004FF0020100F0CE
:103CC8009DFA4FF03A004FF0010100F097FA4FF0DB
:103CD8003B004FF0010100F091FA4FF03C004FF02B
:103CE800F00100F08BFA4FF03D004FF0000100F0BA
:103CF80085FA4FF01400FEF7B9F84FF035004FF091
:103D0800380100F07BFA4FF036004FF0780100F0F0
:103D180075FA4FF03E004FF0380100F06FFA4FF09F
:103D280040004FF00F0100F069FA4FF041004FF0EA
:103D3800F00100F063FA4FF038004FF0000100F096
:103D48005DFA4FF019004FF0490100F057FA4FF0B3
:103D580093004FF00A0100F051FA4FF00A00FEF705
:103D680085F84FF020004FF0200100F047FA4FF09F
:103D78001D004FF0030100F041FA4FF01E004FF014
:103D8800000100F03BFA4FF01F004FF0090100F06E
:103D980035FA4FF044004FF0530100F02FFA4FF07E
:103DA80045004FF0100100F029FA4FF00A00FEF725
:103DB8005DF84FF01C004FF0040100F01FFA4FF0BF
:103DC8001400FEF753F84FF043004FF0800100F065
:103DD80015FA4FF00500FEF749F84FF01B004FF0B9
:103DE8000A0100F00BFA4FF02800FEF73FF84FF0F9
:103DF8001B004FF0120100F001FA4FF02800FEF707
:103E080035F84FF090004FF07F0100F0F7F94FF0D0
:103E180026004FF0040100F0F1F94FF02800FEF7FA
:103E280025F84FF026004FF0240100F0E7F94FF095
:103E380026004FF02C0100F0E1F94FF02800FEF7C2
:103E480015F84FF070004FF0080100F0D7F94FF067
:103E580026004FF03C0100F0D1F94FF057004FF029
:103E6800020100F0CBF94FF055004FF0000100F0CF
:103E7800C5F94FF057004FF0000100F0BFF94FF0BF
:103E88003200FDF7F3FF80BDA6C9002034000020F2
:103E980080B584B000AF0346FB804FF00003FB60A1
:103EA8002B4B1B780A2B03D0294B1B780B2B30D1BB
:103EB8004FF002004FF0000100F0A0F94FF00300AE
:103EC8004FF0000100F09AF94FF004004FF00001A4
:103ED80000F094F94FF005004FF0EF0100F08EF973
:103EE8004FF006004FF0000100F088F94FF007008E
:103EF8004FF0000100F082F94FF008004FF0010187
:103F080000F07CF94FF009004FF03F0100F076F91E
:103F180005E04FF000004FF0000100F01DF84FF0F1
:103F2800220000F041F94FF00003FB6007E0FB8836
:103F3800184600F047F9FB6803F10103FB60FA68D3
:103F4800044B9A42F3D907F11007BD4680BD00BF64
:103F580034000020FF2B010080B584B000AF02467A
:103F68000B46FA80BB80FB88FB81BB88FB80FB8902
:103F7800C3F59E7303F10303BB802D4B1B78A3F19C
:103F88000403092B16D801A252F823F0D73F0008E2
:103F9800D73F0008BD3F0008BD3F0008BD3F0008EF
:103FA800BD3F0008F13F0008F13F0008BD3F000891
:103FB8002F400008FB884FF02000194600F01EF93A
:103FC800BB884FF02100194600F018F92CE0FB8857
:103FD8004FF04E00194600F011F9BB884FF04F0022
:103FE800194600F00BF91FE0FB884FEA13239BB238
:103FF8004FF00200194600F001F9FB884FF003006A
:10400800194600F0FBF8BB884FEA13239BB24FF028
:104018000600194600F0F2F8BB884FF00700194671
:1040280000F0ECF800E000BF07F11007BD4680BDC6
:104038003400002080B582B000AF13460246FA80F3
:104048000A46BA807B80FA8840F23F139A420FD81A
:10405800BB88EF2B0ED8FA88BB8810461946FFF7A5
:104068007BFF7B884FF02200194600F0C7F802E07A
:1040780000BF00E000BF07F10807BD4680BD00BFD4
:1040880080B588B000AFF880B980FA703B8007F13E
:104098000802FB7810461946FDF788FD4FF000032B
:1040A800FB833DE0FB8B07F12002D31813F8183C83
:1040B800FB764FF00003BB832BE0FA7EBB8BC3F18A
:1040C800070342FA03F303F00103DBB2002B0ED01F
:1040D800FA88BB8BD31899B2BA88FB8BD3189AB2DB
:1040E8003B88084611461A46FFF7A4FF0DE0FA88F8
:1040F800BB8BD31899B2BA88FB8BD3189AB23B8D75
:10410800084611461A46FFF795FFBB8B03F10103DA
:10411800BB83BB8B072BD0D9FB8B03F10103FB833C
:10412800FB8B0F2BBED907F12007BD4680BD00BF12
:1041380090B589B002AFBA600246FA810A46BA81E0
:10414800FB80BB681B78FB75BB6803F10103BB6090
:10415800F889B989FA7DFB883C8D0094FFF790FFB8
:10416800FA8940F237139A4204D8FB8903F108030D
:10417800FB8110E0BB89DF2B07D84FF00003FB81E0
:10418800BB8903F11003BB8105E04FF00003FB81FD
:104198004FF00003BB81BB681B78002BD1D107F11E
:1041A8001C07BD4690BD00BF80B483B000AF034676
:1041B800FB804FF0DE43FA881A8007F10C07BD46F2
:1041C80080BC704780B483B000AF0346FB80044BCB
:1041D800FA881A8007F10C07BD4680BC704700BFFB
:1041E8000000016F80B400AF034B1B889BB21846D8
:1041F800BD4680BC704700BF0000016F80B582B02B
:1042080000AF02460B46FA80BB80FB881846FFF7D2
:10421800CBFFBB881846FFF7D5FF07F10807BD4657
:1042280080BD00BF80B582B000AF0346FB80FB882D
:104238001846FFF7B9FFFFF7D5FF0346184607F101
:104248000807BD4680BD00BF80B58AB000AF786062
:104258004FF00003FB6101F021F84C4B1B68002B69
:104268001BD14B4A4B4B1A604A4B4FF000025A6025
:10427800494B4FF448425A60474B4FF000021A60CE
:10428800434B7B617B694FF448425A607B69424AE1
:104298001A603E4B4FF001021A607B68002B0FD06A
:1042A8003E4B1B887A68D3187B607B6803F0070352
:1042B800002B05D07B6823F0070303F108037B601C
:1042C8007B68002B5AD07A684CF2FF739A4255D813
:1042D800304B3B622F4B1B687B6204E07B6A3B627E
:1042E8007B6A1B687B627B6A5A687B689A4203D246
:1042F8007B6A1B68002BF1D17A6A274B9A423DD022
:104308003B6A1A68254B1B88D318FB617B6A1A68BD
:104318003B6A1A607B6A5A687B68D21A1F4B1B88F3
:104328004FEA43039A4222D97A6A7B68D3183B61E1
:104338007B6A5A687B68D21A3B695A607B6A7A68DA
:104348005A603B695B68FB60124BBB6102E0BB696A
:104358001B68BB61BB691B685A68FB689A42F6D345
:10436800BB691A683B691A60BB693A691A600C4BE9
:104378001A687B6A5B68D21A094B1A6000F09CFFC6
:10438800FB69184607F12807BD4680BD48C80020CC
:104398003800002038C8002040C80020D86700082E
:1043A8001800002080B586B000AF78607B683B615C
:1043B8007B68002B29D0174B1B88C3F100033A698F
:1043C800D3183B613B69FB6000F068FFFB685B68E2
:1043D800BB60114B7B6102E07B691B687B617B6979
:1043E8001B685A68BB689A42F6D37B691A68FB68EF
:1043F8001A607B69FA681A60FB685A68074B1B6881
:10440800D218064B1A6000F057FF07F11807BD468F
:1044180080BD00BFD867000838C8002018000020F9
:1044280080B400AF024B1B681846BD4680BC70477D
:104438001800002080B485B000AFF860B9607A60D9
:10444800FB68A3F10403FB60FB684FF080721A60FD
:10445800FB68A3F10403FB60BA68FB681A60FB6899
:10446800A3F10403FB60FB684FF000021A60FB68CD
:10447800A3F11403FB607A68FB681A60FB68A3F178
:104488002003FB60FB68184607F11407BD4680BC93
:10449800704700BF064B19680868B0E8F00F80F352
:1044A80009884FF0000080F311884EF00D0E704718
:1044B8004CC8002003480068006880F3088862B68A
:1044C80000DF00BF08ED00E080B500AF0B4B0B4AE2
:1044D800126842F470021A60084B084A126842F0E7
:1044E80070421A6000F07AF8054B4FF000021A602B
:1044F800FFF7E0FF4FF00003184680BD20ED00E015
:104508001C00002080B400AF034B4FF080521A60AB
:10451800BD4680BC704700BF04ED00E080B400AF2A
:104528004FF0500080F31188044B1B6803F101021F
:10453800024B1A60BD4680BC704700BF1C000020BB
:1045480080B400AF084B1B6803F1FF32064B1A60BA
:10455800054B1B68002B03D14FF0000080F3118836
:10456800BD4680BC704700BF1C000020EFF30980E7
:104578000C4B1A6820E9F00F10602DE908404FF045
:10458800500080F3118800F0E5FF4FF0000080F341
:104598001188BDE8084019680868B0E8F00F80F392
:1045A800098870474CC8002080B582B000AF0A4B1C
:1045B8004FF080521A604FF000037B604FF05000BC
:1045C80080F3118800F01CFF4FF0000080F3118881
:1045D80007F10807BD4680BD04ED00E080B400AFD8
:1045E800044B054A1A60054B4FF007021A60BD4696
:1045F80080BC704714E000E0BFD4010010E000E088
:1046080080B483B000AF78607B6803F108031A4672
:104618007B685A607B684FF0FF329A607B6803F1D1
:1046280008031A467B68DA607B6803F108031A46B8
:104638007B681A617B684FF000021A6007F10C076B
:10464800BD4680BC704700BF80B483B000AF7860BF
:104658007B684FF000021A6107F10C07BD4680BC69
:10466800704700BF80B485B000AF786039607B6860
:104678005B68FB60FB685A683B685A607B685A68ED
:104688003B689A60FB685B683A689A603A68FB68BE
:104698005A603A687B685A603B687A681A617B6836
:1046A8001B6803F101027B681A6007F11407BD4615
:1046B80080BC704780B485B000AF786039603B68D3
:1046C8001B68BB60BB68B3F1FF3F03D17B681B6904
:1046D800FB600DE07B6803F10803FB6002E0FB6808
:1046E8005B68FB60FB685B681A68BB689A42F6D92E
:1046F800FB685A683B685A603B685B683A689A602E
:104708003B68FA689A603A68FB685A603B687A685E
:104718001A617B681B6803F101027B681A6007F164
:104728001407BD4680BC704780B485B000AF786080
:104738007B685B687A6892689A607B689B687A682D
:1047480052685A607B681B69FB60FB685A687B6823
:104758009A4203D17B689A68FB685A607B684FF07D
:1047680000021A61FB681B6803F1FF32FB681A60DC
:1047780007F11407BD4680BC704700BF80B586B0FE
:1047880000AF786039604FF000037B617B68002BD5
:1047980056D04FF04C00FFF757FD03463B613B698D
:1047A800002B4DD07B683A6802FB03F303F1010349
:1047B800FB60F868FFF748FD03461A463B691A6034
:1047C8003B691B68002B38D03B691A687B683968DD
:1047D80001FB03F3D2183B695A603B694FF00002B2
:1047E8009A633B691A683B699A603B691A687B68F7
:1047F80003F1FF33396801FB03F3D2183B69DA6030
:104808003B697A68DA633B693A681A643B694FF036
:10481800FF325A643B694FF0FF329A643B6903F1F7
:1048280010031846FFF7ECFE3B6903F12403184612
:10483800FFF7E6FE3B697B6102E03869FFF7B2FDEE
:104848007B69002B04D14FF0500080F31188FEE7FC
:104858007B69184607F11807BD4680BD80B588B04A
:1048680000AFF860B9607A603B604FF00003FB610D
:10487800FB68002B04D14FF0500080F31188FEE74D
:10488800BB68002B03D1FB681B6C002B02D14FF0D7
:10489800010301E04FF00003002B05D14FF0500059
:1048A80080F31188FEE700BFFFF738FEFB689A6BBC
:1048B800FB68DB6B9A4218D2F868B9683A6800F06E
:1048C800A9F9FB685B6A002B0AD0FB6803F1240393
:1048D800184600F031FF0346012B01D1FFF712FE05
:1048E800FFF72EFE4FF001035DE07B68002B04D13B
:1048F800FFF726FE4FF0000355E0FB69002B07D1B8
:1049080007F11403184600F079FF4FF00103FB612B
:10491800FFF716FE00F0C2FCFFF700FEFB685B6CB9
:10492800B3F1FF3F03D1FB684FF000025A64FB6804
:104938009B6CB3F1FF3F03D1FB684FF000029A6410
:10494800FFF7FEFD07F1140207F1040310461946AC
:1049580000F072FF0346002B1ED1F86800F03CFA05
:104968000346002B12D0FB6803F110027B68104647
:10497800194600F079FEF86800F0C8F900F09CFCD0
:104988000346002B8FD1FFF7BDFD8DE7F86800F0D7
:10499800BDF900F091FC87E7F86800F0B7F900F07E
:1049A8008BFC4FF00003184607F12007BD4680BD79
:1049B80080B586B000AFF860B9607A603B60FB688C
:1049C800002B04D14FF0500080F31188FEE77B687C
:1049D800002B04D14FF0500080F31188FEE7BB682C
:1049E800002B03D1FB681B6C002B02D14FF0010395
:1049F80001E04FF00003002B04D14FF0500080F38A
:104A08001188FEE74FF000033B614FF0500080F340
:104A18001188FB689A6BFB68DB6B9A4225D2F868B1
:104A2800B9683A6800F0F6F8FB689B6CB3F1FF3F91
:104A380011D1FB685B6A002B13D0FB6803F12403D8
:104A4800184600F079FE0346002B0AD07B684FF029
:104A580001021A6005E0FB689B6C03F10102FB6828
:104A68009A644FF001037B6102E04FF000037B6121
:104A78004FF0000080F311887B69184607F118078A
:104A8800BD4680BD80B588B000AFF860B9607A6077
:104A98003B604FF00003FB61FB68002B04D14FF033
:104AA800500080F31188FEE7BB68002B03D1FB6838
:104AB8001B6C002B02D14FF0010301E04FF0000303
:104AC800002B05D14FF0500080F31188FEE700BF9E
:104AD800FFF724FDFB689B6B002B36D0FB68DB6877
:104AE800BB61F868B96800F0E9F83B68002B15D19C
:104AF800FB689B6B03F1FF32FB689A63FB681B69D9
:104B0800002B1DD0FB6803F11003184600F014FEBB
:104B18000346012B14D1FFF7F5FC11E0FB68BA69D5
:104B2800DA60FB685B6A002B0AD0FB6803F1240398
:104B3800184600F001FE0346002B01D0FFF7E2FC07
:104B4800FFF7FEFC4FF001035EE07B68002B04D109
:104B5800FFF7F6FC4FF0000356E0FB69002B07D186
:104B680007F11003184600F049FE4FF00103FB61FE
:104B7800FFF7E6FC00F092FBFFF7D0FCFB685B6CEC
:104B8800B3F1FF3F03D1FB684FF000025A64FB68A2
:104B98009B6CB3F1FF3F03D1FB684FF000029A64AE
:104BA800FFF7CEFC07F1100207F10403104619467F
:104BB80000F042FE0346002B1FD1F86800F0F6F81B
:104BC8000346002B13D0FB6803F124027B681046D0
:104BD800194600F049FDF86800F098F800F06CFB01
:104BE8000346002B7FF473AFFFF78CFC70E7F8687F
:104BF80000F08CF800F060FB6AE7F86800F086F8CF
:104C080000F05AFB4FF00003184607F12007BD4695
:104C180080BD00BF80B584B000AFF860B9607A602D
:104C2800FB681B6C002B3ED07B68002B1AD1FB68FD
:104C38009A68FB681B6C1046B9681A46FBF712FBAA
:104C4800FB689A68FB681B6CD218FB689A60FB6863
:104C58009A68FB685B689A4225D3FB681A68FB6808
:104C68009A6020E0FB68DA68FB681B6C1046B9683C
:104C78001A46FBF7F7FAFB68DA68FB681B6CC3F1A6
:104C88000003D218FB68DA60FB68DA68FB681B6807
:104C98009A4208D2FB685A68FB681B6CC3F1000390
:104CA800D218FB68DA60FB689B6B03F10102FB68B2
:104CB8009A6307F11007BD4680BD00BF80B582B07A
:104CC80000AF786039607B681B68002B19D07B685F
:104CD800DA687B681B6CD2187B68DA607B68DA68F4
:104CE8007B685B689A4203D37B681A687B68DA60E2
:104CF8007B68DA687B681B6C386811461A46FBF7D4
:104D0800B1FA07F10807BD4680BD00BF80B582B083
:104D180000AF7860FFF702FC14E07B685B6A002B49
:104D280015D07B6803F12403184600F005FD0346FF
:104D3800002B01D000F0DAFD7B689B6C03F1FF3299
:104D48007B689A647B689B6C002BE6DC00E000BF04
:104D58007B684FF0FF329A64FFF7F2FBFFF7DEFB48
:104D680014E07B681B69002B15D07B6803F11003E6
:104D7800184600F0E1FC0346002B01D000F0B6FD18
:104D88007B685B6C03F1FF327B685A647B685B6C01
:104D9800002BE6DC00E000BF7B684FF0FF325A646E
:104DA800FFF7CEFB07F10807BD4680BD80B584B08C
:104DB80000AF7860FFF7B2FB7B689B6B002B14BFDA
:104DC80000230123FB60FFF7BBFBFB68184607F1D4
:104DD8001007BD4680BD00BF80B584B000AF7860C5
:104DE800FFF79CFB7B689A6B7B68DB6B9A4214BF6E
:104DF80000230123FB60FFF7A3FBFB68184607F1BC
:104E08001007BD4680BD00BF80B582B000AF786096
:104E18003960FFF783FB7B685B6CB3F1FF3F03D11D
:104E28007B684FF000025A647B689B6CB3F1FF3FCC
:104E380003D17B684FF000029A64FFF781FB7B681F
:104E48009B6B002B06D17B6803F124031846396855
:104E580000F046FC7868FFF759FF07F10807BD46E0
:104E680080BD00BF80B58AB002AFF860B9603B6012
:104E78001346FB80FB68002B04D14FF0500080F3F1
:104E88001188FEE7BB6A042B04D94FF0500080F369
:104E98001188FEE7FB881846396B00F03BFEB861C5
:104EA800BB69002B00F08E80BB691A6BFB8803F18D
:104EB800FF334FEA8303D3187B617B6923F0070331
:104EC8007B617B6903F00703002B04D04FF050008F
:104ED80080F31188FEE7FB880093B869B968BA6A5D
:104EE8007B6B00F021FD7869F9683A68FFF7A2FA50
:104EF80003461A46BB691A60BB691B6803F00703BF
:104F0800002B04D04FF0500080F31188FEE7FB6AB5
:104F1800002B02D0FB6ABA691A60FFF7FFFA354B1B
:104F28001B6803F10102334B1A60334B1B68002BDB
:104F380009D1314BBA691A602E4B1B68012B0FD16E
:104F480000F02EFD0CE02D4B1B68002B08D12A4BDE
:104F58001B68DA6ABB6A9A4202D8274BBA691A6098
:104F6800BB69DA6A264B1B689A4203D9BB69DA6ABD
:104F7800234B1A60234B1B6803F10102214B1A6073
:104F8800BB69DA6A204B1B689A4203D9BB69DA6AA3
:104F98001D4B1A60BB69DA6A13464FEA83039B18F4
:104FA8004FEA83031A46194BD218BB6903F104036D
:104FB80010461946FFF756FB4FF00103FB61FFF758
:104FC800BFFA02E04FF0FF33FB61FB69012B0BD105
:104FD8000A4B1B68002B07D0074B1B68DA6ABB6AB1
:104FE8009A4201D2FFF78EFAFB69184607F12007AB
:104FF800BD4680BD24C900204CC8002034C900200B
:105008002CC9002048C9002030C9002050C8002001
:1050180080B584B000AF78604FF00003FB607B6818
:10502800002B13D000F03AF90D4B1A687B68D3189F
:10503800BB600C4B1B6803F104031846FFF774FBB5
:10504800B86800F02FFD00F037F9F860FB68002B16
:1050580001D1FFF757FA07F11007BD4680BD00BF21
:1050680028C900204CC8002080B584B000AF786003
:10507800FFF754FA214B1B687A689A4202D14FF025
:1050880000037B607B68002B02D11C4B1B6800E08F
:105098007B68FB60FB6803F104031846FFF744FBD9
:1050A800FB689B6A002B05D0FB6803F118031846C0
:1050B800FFF73AFBFB6803F1040311481946FFF7B1
:1050C800D1FAFFF73DFA7B68002B13D10D4B1B6813
:1050D800002B02D0FFF716FA0CE0094B1A680A4BAE
:1050E8001B689A4204D1054B4FF000021A6001E098
:1050F80000F030FA07F11007BD4680BD4CC800200B
:1051080010C9002034C9002024C9002080B485B00B
:1051180000AF78604FF00003FB607B68BB607B6882
:10512800002B04D14FF0500080F31188FEE7BB68D4
:105138005A690B4B9A420BD1BB689A6A094B9A423F
:1051480006D0BB689B6A002B02D14FF00103FB60BD
:10515800FB68184607F11407BD4680BC704700BFBE
:1051680010C90020E4C8002080B584B000AF786082
:105178007B68002B04D14FF0500080F31188FEE7C4
:105188007B68FB60FB68002B39D01F4B1B68FA68F3
:105198009A4234D0FFF7C2F9F868FFF7B7FF034621
:1051A800012B2AD1FB6803F104031846FFF7BCFA68
:1051B800FB68DA6A154B1B689A4203D9FB68DA6AFE
:1051C800124B1A60FB68DA6A13464FEA83039B188E
:1051D8004FEA83031A460E4BD218FB6803F1040307
:1051E80010461946FFF73EFAFB68DA6A064B1B6859
:1051F800DB6A9A4201D3FFF785F9FFF7A1F907F1B6
:105208001007BD4680BD00BF4CC8002030C9002033
:1052180050C8002080B586B004AF1C4B4FF0000288
:1052280000924FF0000201924FF0000202924FF0FC
:1052380000020392164819464FF0C8024FF00003C7
:10524800FFF710FE78607B68012B02D100F0CEFCDE
:1052580078607B68012B0DD14FF0500080F31188E6
:105268000C4B4FF001021A600B4B4FF000021A6012
:10527800FFF72AF97B68002B04D14FF0500080F328
:105288001188FEE707F10807BD4680BD9861000850
:105298000D59000834C9002028C9002080B400AF87
:1052A800044B1B6803F10102024B1A60BD4680BC27
:1052B800704700BF38C9002090B583B000AF4FF0E9
:1052C80000037B603D4B1B68002B04D14FF050005E
:1052D80080F31188FEE7FFF721F9384B1B6803F1CB
:1052E800FF32364B1A60354B1B68002B5ED1344BAE
:1052F8001B68002B5AD04FF000033B602EE0314B67
:10530800DB68DB681C4604F118031846FFF70CFA43
:1053180004F104031846FFF707FAE26A2A4B1B68F0
:105328009A4202D9E26A284B1A60E26A13464FEAA7
:1053380083039B184FEA83031A46244BD21804F1BF
:10534800040310461946FFF78DF9E26A204B1B68E3
:10535800DB6A9A4202D34FF001033B60194B1B688A
:10536800002BCCD11B4B1B68002B0FD007E000F0A3
:1053780047F8184B1B6803F1FF32164B1A60154BA0
:105388001B68002BF3D14FF001033B603B68012BF6
:1053980003D0114B1B68012B08D14FF001037B6030
:1053A8000D4B4FF000021A60FFF7ACF8FFF7C8F892
:1053B8007B68184607F10C07BD4690BD38C9002028
:1053C80024C90020E4C8002030C9002050C80020AB
:1053D8004CC800203CC9002040C9002080B582B0DC
:1053E80000AFFFF79BF8054B1B687B60FFF7A8F839
:1053F8007B68184607F10807BD4680BD28C900200C
:1054080080B584B000AF4A4B1B68002B40F0858004
:10541800484B1B6803F10102464B1A60454B1B6859
:10542800002B2CD1444B1B681B68002B04D04FF079
:10543800500080F31188FEE73F4B1B68FB603F4B31
:105448001A683D4B1A603D4BFA681A603C4B1B6862
:1054580003F101023A4B1A60374B1B681B68002B9B
:1054680004D1384B4FF0FF321A6008E0324B1B680A
:10547800DB68DB68BB60BB685A68324B1A602D4B2F
:105488001A68304B1B689A424DD32B4B1B681B681C
:10549800002B04D12B4B4FF0FF321A6043E0264B10
:1054A8001B68DB68DB68BB60BB685B687B60214BA3
:1054B8001A687B689A4203D2224B7A681A6032E0F3
:1054C800BB6803F104031846FFF72EF9BB689B6A13
:1054D800002B05D0BB6803F118031846FFF724F921
:1054E800BB68DA6A184B1B689A4203D9BB68DA6A48
:1054F800154B1A60BB68DA6A13464FEA83039B1898
:105508004FEA83031A46114BD218BB6803F1040310
:1055180010461946FFF7A6F8B7E70D4B1B6803F1CD
:1055280001020B4B1A6007F11007BD4680BD00BF92
:1055380038C9002028C90020DCC80020E0C80020A5
:1055480044C900202000002030C9002050C8002095
:105558003CC9002080B582B000AF3D4B1B68002BD2
:1055680004D03C4B4FF001021A606CE03A4B1B68C8
:105578001A68394B1B681B6B9A420AD8364B1B6852
:105588001A46354B1B6803F1340310461946FBF7DE
:10559800F1F9314B1B681B6B184630494FF0140268
:1055A800FAF72EFE0346002B1BD02B4B1B681A461E
:1055B800294B1B6803F1340310461946FBF7DAF947
:1055C80010E0274B1B68002B04D14FF0500080F3EC
:1055D8001188FEE7224B1B6803F1FF32204B1A604B
:1055E80000E000BF1E4B1A6813464FEA83039B185E
:1055F8004FEA83031A461B4BD3181B68002BE0D0D5
:10560800174B1A6813464FEA83039B184FEA830324
:105618001A46144BD3187B607B685B685A687B68B2
:105628005A607B685A687B6803F108039A4204D180
:105638007B685B685A687B685A607B685B68DB6874
:105648001A46054B1A6007F10807BD4680BD00BF22
:1056580038C9002040C900204CC80020DC67000879
:1056680030C9002050C8002080B584B000AF7860F1
:1056780039607B68002B04D14FF0500080F311880B
:10568800FEE7144B1B6803F1180378681946FFF707
:1056980011F8104B1B6803F104031846FFF744F890
:1056A8003B68B3F1FF3F08D10A4B1B6803F10403C1
:1056B80009481946FEF7D6FF07E0084B1A683B6809
:1056C800D318FB60F86800F0EDF907F11007BD4644
:1056D80080BD00BF4CC8002010C9002028C9002088
:1056E80080B584B000AF786039607B68002B04D146
:1056F8004FF0500080F31188FEE70D4B1B6803F153
:10570800180378681946FEF7ADFF094B1B6803F1CB
:1057180004031846FFF708F8064B1A683B68D318C5
:10572800FB60F86800F0BEF907F11007BD4680BDC0
:105738004CC8002028C9002080B584B000AF78602C
:105748007B68DB68DB68BB60BB68002B04D14FF06B
:10575800500080F31188FEE7BB6803F11803184670
:10576800FEF7E2FF204B1B68002B22D1BB6803F138
:1057780004031846FEF7D8FFBB68DA6A1B4B1B68A0
:105788009A4203D9BB68DA6A184B1A60BB68DA6AAE
:1057980013464FEA83039B184FEA83031A46144BB8
:1057A800D218BB6803F1040310461946FEF75AFFE6
:1057B80006E0BB6803F118030E481946FEF752FFCE
:1057C800BB68DA6A0C4B1B68DB6A9A4203D34FF05A
:1057D8000103FB6002E04FF00003FB60FB68184622
:1057E80007F11007BD4680BD38C9002030C9002028
:1057F80050C80020E4C800204CC8002080B483B002
:1058080000AF78607B68002B04D14FF0500080F324
:105818001188FEE7064B1A687B681A60054B1A6800
:105828007B685A6007F10C07BD4680BC704700BF13
:1058380044C9002028C9002080B584B000AF786032
:1058480039607B68002B04D14FF0500080F3118839
:10585800FEE73B68002B04D14FF0500080F311881D
:10586800FEE7FEF75BFE3B681B68B3F1FF3F03D121
:105878004FF00003FB602CE07B681A68194B1B682B
:105888009A4209D07B685A68174B1B689A4203D81A
:105898004FF00103FB601CE0134B1A687B685B68E0
:1058A800D21A3B681B689A4210D23B681A687B6818
:1058B80059680D4B1B68CB1AD2183B681A60786878
:1058C800FFF79CFF4FF00003FB6002E04FF001037D
:1058D800FB60FEF735FEFB68184607F11007BD466A
:1058E80080BD00BF44C9002028C9002080B400AF93
:1058F800034B4FF001021A60BD4680BC704700BFE1
:1059080040C9002080B582B000AF786000F08CF804
:10591800044B1B68012B01D9FEF7F4FDFBF71EF8B9
:10592800F4E700BF50C8002080B584B000AFF8602D
:10593800B9607A603B60FB6803F134031A46BB68C0
:10594800104619464FF00A02FAF78EFDFB684FF031
:10595800000283F83D207B68042B02D94FF0040332
:105968007B60FB687A68DA62FB6803F10403184617
:10597800FEF76AFEFB6803F118031846FEF764FE9B
:10598800FB68FA681A617B68C3F10502FB689A61D3
:10599800FB68FA685A6207F11007BD4680BD00BF70
:1059A80080B582B000AF4FF000037B6010E07A68EA
:1059B80013464FEA83039B184FEA83031A46124B98
:1059C800D3181846FEF71CFE7B6803F101037B60C1
:1059D8007B68042BEBD90D48FEF712FE0C48FEF746
:1059E8000FFE0C48FEF70CFE0B48FEF709FE0B48AD
:1059F800FEF706FE0A4B054A1A600A4B044A1A606B
:105A080007F10807BD4680BD50C80020B4C8002073
:105A1800C8C80020E4C80020F8C8002010C9002029
:105A2800DCC80020E0C8002080B582B000AF194B68
:105A38001B68002B2AD0FFF731FC174B1B68002B83
:105A480014BF002301237B60FFF736FC7B68002B23
:105A58001CD1FEF763FD114B5B68DB683B603B685C
:105A680003F104031846FEF75FFE0D4B1B6803F1B4
:105A7800FF320B4B1A60074B1B6803F1FF32054BD3
:105A88001A60FEF75DFD386800F07EF807F1080738
:105A9800BD4680BD0CC90020F8C8002000C9002000
:105AA80024C9002080B582B000AF7860144B1B6811
:105AB8007A685A60134B1B687A689A420AD2124B6A
:105AC8001A680F4B1B6803F1040310461946FEF7CA
